:100000000C9489000C94B1000C94B1000C94B100D4
:100010000C94B1000C94B1000C94B1000C947117C5
:100020000C94B1000C94B1000C94B1000C94B1008C
:100030000C94B1000C94B1000C94B1000C94B1007C
:100040000C9427170C94B1000C94B1000C94B100DF
:100050000C94B1000C94B1000C94B1000C94B1005C
:100060000C94F3170C94B100D007000000000000BE
:10007000D007000000000000D007000000000000D2
:10008000D00700000000000046000000460000000D
:100090004600000046000000460000004600000048
:1000A00046000000FE0100000200000000240027BE
:1000B000002A0000000000250028002B000000009E
:1000C000002300260029000404040404040404029C
:1000D00002020202020303030303030102040810E5
:1000E00020408001020408102001020408102000B2
:1000F00000000800020100000304070000000000E7
:100100000000001F1C1F1E1F1E1F1F1E1F1E1F0082
:10011000121911241FBECFEFD8E0DEBFCDBF11E012
:10012000A0E0B1E0ECEAFEE302C005900D92AC3233
:10013000B107D9F722E0ACE2B1E001C01D92A837C7
:10014000B207E1F710E0C9E8D0E004C02197FE0152
:100150000E94061EC838D107C9F70E943E1A0C94A7
:10016000541F0C94000080914E0290914F028230F7
:10017000910538F0880F991F880F991F05970197EF
:10018000F1F70895FC01AEE6B2E08C918083119600
:100190008C911197818312968C911297828313967A
:1001A0008C911397838314968C911497848315965E
:1001B0008C9185830895EBE4F2E015821682178214
:1001C0001086089583E480937C0080917A00806497
:1001D00080937A0080917A0086FDFCCF8091780030
:1001E000909179000895833081F028F4813099F05E
:1001F0008230A9F008958730A9F08830C9F08430A2
:10020000B1F4809180008F7D03C0809180008F7752
:1002100080938000089584B58F7784BD089584B558
:100220008F7DFBCF8091B0008F778093B0000895D1
:100230008091B0008F7DF9CFCF93DF93282F30E0EE
:10024000F901E151FF4F8491F901E552FF4FD4913B
:10025000F901E953FF4FC491CC23A1F081110E9411
:10026000F300EC2FF0E0EE0FFF1FE354FF4FA591DA
:10027000B491EC91ED2381E090E009F480E0DF910E
:10028000CF91089580E090E0FACF1F93CF93DF9352
:10029000282F30E0F901E151FF4F8491F901E55237
:1002A000FF4FD491F901E953FF4FC491CC23A9F03A
:1002B000162F81110E94F300EC2FF0E0EE0FFF1FCC
:1002C000ED54FF4FA591B4918FB7F894EC911111B3
:1002D00008C0D095DE23DC938FBFDF91CF911F91B3
:1002E0000895DE2BF8CFCF93DF9390E0FC01E55229
:1002F000FF4F249189539F4FFC0184918823C9F0BB
:1003000090E0880F991FFC01E755FF4FA591B4912C
:10031000FC01ED54FF4FC591D49161110DC09FB701
:10032000F8948C91209582238C93888128232883AC
:100330009FBFDF91CF910895623051F49FB7F89439
:100340003C91822F809583238C93E8812E2BEFCFD5
:100350008FB7F894EC912E2B2C938FBFEACFCF93CD
:10036000DF93CBE4D2E061E089810E9473010E94B7
:10037000B30060E088810E9473010E94B30060E0D6
:1003800089810E947301DF91CF910C94B3000F9388
:100390001F93CF93DF93D82FC8E061E080914B0289
:1003A0000E9473010E94B3000D2F10E060E0D0FFA7
:1003B00061E080914C020E9473010E94B30060E0F2
:1003C00080914B020E9473010E94B300159507951E
:1003D000D02FC15011F761E080914B020E94730150
:1003E00060E080914C020E9473010E94B30060E0C3
:1003F00080914B020E9473010E94B30080914C02D5
:100400000E941C01C82F811105C061E080914C023F
:100410000E9473010E94B30061E080914B020E9430
:1004200073010E94B30081E0C11101C080E0DF913F
:10043000CF911F910F91089561E080914C020E942D
:1004400073010C94B3000F931F93CF93DF938C0130
:100450000E941C0280E40E94C7010E94AF010E941A
:100460001C0280EC0E94C701E8010C5F1F4F8991BC
:100470000E94C701C017D107D1F70E94AF010E94A7
:100480001C0280914D028F7080580E94C701DF913D
:10049000CF911F910F910C94AF013FB7F8948091C9
:1004A000BE019091BF01A091C001B091C10126B5DC
:1004B000A89B05C02F3F19F00196A11DB11D3FBF9C
:1004C000BA2FA92F982F8827BC01CD01620F711D6B
:1004D000811D911D42E0660F771F881F991F4A9565
:1004E000D1F708952FB7F8946091BA017091BB01CC
:1004F0008091BC019091BD012FBF0895089508958A
:1005000020918601260F3327331F21323105ECF469
:1005100020910A02FC0190E080E0243069F082E042
:100520000895A09186012191AC014A595E4FA40F14
:10053000B52FB11D2C930196861798F380918601F3
:10054000680F6093860180E0089581E0089510921D
:100550000A0281E0809309021092E40161E082E1E5
:100560000E94450161E083E10E944501E9EBF0E072
:1005700080818E7F808380818D7F808388E48093DB
:10058000B80085E48093BC000895CF93DF9391E099
:10059000909365018823B9F0C091B800D091BA005A
:1005A0008091BC008A7B8093BC0060E082E10E9465
:1005B000450160E083E10E9445010E94A702D093BB
:1005C000BA00C093B800DF91CF9108958F929F92A7
:1005D000AF92BF92CF92DF92EF92FF920F931F9351
:1005E000CF93DF93D0913302D13208F0D7C0182FC8
:1005F000C09132020E944D026B017C0180910A027F
:1006000081116BC082E080930A02109309028FEF80
:100610008093080210920702D0930602A2E1B2E092
:10062000E6EEF1E080E0D81391C01092E5018091F0
:10063000E501CC0FC82BC093E5018091E401813026
:1006400009F088C01092E4010E944D026B017C0108
:100650008091E5018093BB0080910C0290910D0286
:10066000A0910E02B0910F02892B8A2B8B2BA1F047
:100670000E944D0200910C0210910D0220910E0279
:1006800030910F026C197D098E099F090617170713
:100690002807390708F442C08091BC0083FDD8CFF9
:1006A00085EC8093BC000E944D026B017C0180911F
:1006B0000A02823009F450C0809108028F3F09F489
:1006C0006FC080910802803209F46CC080910802EA
:1006D000803309F469C084E026C080910C029091B7
:1006E0000D02A0910E02B0910F02892B8A2B8B2B49
:1006F00009F484CF0E944D0280900C0290900D026C
:10070000A0900E02B0900F026C197D098E099F090E
:1007100086169706A806B90608F070CF80910B02DE
:100720000E94C50285E010921102109233021092CD
:100730001002DF91CF911F910F91FF90EF90DF900A
:10074000CF90BF90AF909F908F9008959D9191937F
:100750008F5F69CF85EEA5CF80910C0290910D023D
:10076000A0910E02B0910F02892B8A2B8B2B09F4DA
:100770009ECF0E944D0200910C0210910D0220911B
:100780000E0230910F026C197D098E099F09061720
:1007900017072807390708F08ACFC0CF81E0C3CFF9
:1007A00080E0C1CF82E0BFCF83E0BDCF81E0809306
:1007B000100288E6809332021092110210923302E6
:1007C00081E00E94E60291E0811190E0892F089576
:1007D0000895E091C3018091C201E81730F4F0E080
:1007E000EC53FE4F808190E008958FEF9FEF0895C6
:1007F0009091C3018091C2012FEF3FEF981748F409
:10080000E92FF0E0EC53FE4F208130E09F5F9093A2
:10081000C301C90108958091C2019091C301891B50
:10082000990B0895CF92DF92EF92FF920F931F934F
:10083000CF93DF937C01CB018A0120911002222308
:1008400089F0EB016B01C40ED51ECC15DD0569F0F6
:100850006991D701ED91FC910190F081E02DC701E4
:100860000995F3CF642F0E948002C801DF91CF91D8
:100870001F910F91FF90EF90DF90CF900895CF934D
:10088000DF931F92CDB7DEB7698320911002222338
:10089000F9F020913302203258F021E030E0FC01E1
:1008A0003383228390E080E00F90DF91CF91089511
:1008B00080911102E82FF0E0EE5EFD4F9981908368
:1008C0008F5F809311028093330281E090E0ECCF40
:1008D00061E0CE0101960E948002F7CFCF93C62F30
:1008E00091E09093100298E69093320210921102D8
:1008F00010923302682F84E392E00E943F046C2F31
:1009000084E392E00E943F0481E0CF910C94E602E0
:1009100090E080E008954F925F926F927F928F9265
:100920009F92AF92BF92CF92DF92EF92FF920F937E
:100930001F93CF93DF938C01D12C8BE0C82ED8016D
:100940008C91D81608F04CC0DC9C700111241196D3
:10095000ED91FC91EE0DFF1D80818823B1F1818521
:100960009285892B91F10E947202F801C181D28196
:10097000CE0DDF1D89809A80AB80BC806819790913
:100980008A099B094D805E806F80788464157505A7
:1009900086059705D0F064197509860997096415CD
:1009A00075058605970598F00E94720269837A831F
:1009B0008B839C83D80111968D919C91E80EF91E32
:1009C000D7011996ED91FC910995D394B8CF840C79
:1009D000951CA61CB71C89829A82AB82BC82EACF86
:1009E000DF91CF911F910F91FF90EF90DF90CF900B
:1009F000BF90AF909F908F907F906F905F904F903F
:100A000008958630F9F048F4823081F08430A9F0FE
:100A1000109252021092530208958730B9F0883034
:100A2000B9F71092500210925102F2CF83E78093EF
:100A3000500286E880935102EBCF83E78093500207
:100A40008BEDF8CF8093500288EFF4CF83E780934B
:100A5000500284EDEFCF1F93CF93DF93D82FC62F93
:100A6000142F0E94DB00D7FD16C08D2F6AE00E9474
:100A70006E1DE82F880FFF0BE65FFE4F808180938D
:100A80005002E92F990FFF0BE65FFE4F8081111195
:100A9000806880935102C7FD14C08C2F6AE00E94C9
:100AA0006E1DE82F880FFF0BE65FFE4F808180935D
:100AB0005202E92F990FFF0BE65FFE4F8081809372
:100AC0005302DF91CF911F910895382F862F64E64E
:100AD0000E94621D292F323059F1333021F187E70E
:100AE000809350028CE9809351022A3068F14111C1
:100AF0002BC0822F6AE00E94621DE82FF0E0E65FC3
:100B0000FE4F80818093520280E0411109C0822F04
:100B10006AE00E94621DE92FF0E0E65FFE4F8081EF
:100B200080935302089588E78093500284EFDBCFCF
:100B30008CE7809350028091B801863019F086E0EE
:100B40008068D1CF8FE3FCCF80E0DCCF883070F4B9
:100B5000823078F08150853028F4982F990F990FC2
:100B6000890F0895853021F08CE3089581E0089580
:100B70008EE10895E82FF0E0EE0FFF1FE65AFD4FDB
:100B80000190F081E02D309751F08285833038F06C
:100B9000853018F0863009F0089581E0848B08953F
:100BA00080E592E0FC0135810196208132130AC074
:100BB00022E084359207B1F7909159028091540256
:100BC0009817C1F080915002809355028091510294
:100BD0008093560280915202809357028091530273
:100BE00080935802809154028093590280E592E0EC
:100BF0000C9423020895E0915A02F0915B02309721
:100C000009F0148AE0915C02F0915D02309709F0DE
:100C1000148AE0915E02F0915F02309709F0148A25
:100C200008950F93FC018081442381F08F5F8083BE
:100C30008081681720F0222339F0811105C000233C
:100C400039F04111622F60830F9108958150EFCFE9
:100C50004111262F2083F8CF0F931F93CF93DF935B
:100C600000D000D000D0CDB7DEB780913201811125
:100C70000AC0CE0101960E94C2008E81809331018C
:100C800081E080933201CE0101960E94C2008E81E4
:100C9000909131019817F1F0CE0101960E94C200A7
:100CA0008E8180933101109251010E9472026093F3
:100CB0002D0170932E0180932F0190933001269681
:100CC0000FB6F894DEBF0FBECDBFDF91CF911F915D
:100CD0000F910895809151018111F1CF0E9472020C
:100CE00000912D0110912E0120912F0130913001A2
:100CF000601B710B820B930B643F71408105910562
:100D0000F0F281E080935101DACF1F93CF93DF930C
:100D1000EC01862F142F22E330E03A83298328EE5A
:100D200033E03C832B832CE231E03E832D8391E042
:100D30009F8324E630E0398728871A8690E19B87D5
:100D40001C861D861E861F86188A198A1A8A1B8A87
:100D50001C8A688362E00E9473018B858B7F8B877E
:100D6000112311F082E08F83DF91CF911F910895BD
:100D7000FC01838590E002C0959587956A95E2F71E
:100D800081700895E82FF0E0EE0FFF1FE65AFD4F47
:100D900080819181009719F060E00C94B80680E0A2
:100DA00008950F931F93CF93DF93362F2AE0622F7E
:100DB0000E94621D8F70E82FF0E0E65FFE4FD08149
:100DC000E92FF0E0E65FFE4FC081832F0E94621D95
:100DD0008F70E82FF0E0E65FFE4F0081E92FF0E032
:100DE000E65FFE4F10818091B8018A30B9F480919E
:100DF0005101811113C081E00E94C20681110EC011
:100E000082E00E94C206811109C08091570184309E
:100E1000C9F090F48230B1F08330B9F0D093500231
:100E2000C058C09351020093520210935302DF91B5
:100E3000CF911F910F910895853039F0863071F769
:100E400010E000E0C0E0D0E0E9CF10E000E0E6CF45
:100E5000CF93DF93EC018B858F738B871C8A60E0C7
:100E6000CE010E94B8068A87DF91CF910895E82FBE
:100E7000F0E0EE0FFF1FE65AFD4F80819181009751
:100E800011F00C9428070895CF92DF92EF92FF9211
:100E90000F931F93CF93DF93EC011B85012F077FE7
:100EA0000B876623A1F069017A01802F81608B870F
:100EB00066E0CE010E94B806811116C083E08A87E1
:100EC00001640B87C88AD98AEA8AFB8A04C0167F24
:100ED0001B8782E08A87DF91CF911F910F91FF904E
:100EE000EF90DF90CF90089588899989AA89BB896E
:100EF000C81AD90AEA0AFB0A8D819E81B0E0A0E0F7
:100F00008C159D05AE05BF0530F384E08A87177BFD
:100F100011601B87E0CFEF92FF920F93CF93DF9387
:100F2000DC011196ED91FC911297309731F1AC9163
:100F3000CF01C0E0AC1709F17C010B96FC013297A0
:100F40000190F081E02DEF2BB1F4F7010083458390
:100F5000568367837087328721870E947202F70168
:100F600061837283838394838C2FDF91CF910F9160
:100F7000FF90EF900895CF5FDDCF8FEFF6CFFC01AC
:100F800021813281232B59F067FD09C0062E000C08
:100F9000770B908181E09617170609F00CF480E03A
:100FA00008950F931F93CF938C01C62F0E94BF0704
:100FB000882391F0D8011196ED91FC91BBE0CB0212
:100FC000E00DF11D11248081882331F081E021851D
:100FD0003285232B09F480E0CF911F910F91089562
:100FE0000F931F93CF938C01C62F0E94BF078823B6
:100FF00051F0D8011196ED91FC91BBE0CB02E00DD0
:10100000F11D11241082CF911F910F9108958091AD
:10101000B8018A3041F4E0915A02F0915B023097B6
:1010200011F082E0848B6091B70180E692E00C942D
:10103000F0078091B801853068F4833098F48130EE
:1010400058F0E0915A02F0915B02309729F082E06B
:10105000848B02C08930A8F36091680283E692E035
:101060000C94F00760916B0283E692E00E94F00717
:101070001092B801F1CF682F83E692E00E94F0074A
:101080006091680283E692E00E94F0070C94FB05F1
:101090001F93CF93DF93EC01162F0E94BF07882385
:1010A000A1F00980DA81C02D8BE01802C00DD11D9E
:1010B000112489859A85892B41F081E088830E94DB
:1010C000720269837A838B839C83DF91CF911F9116
:1010D00008958F929F92AF92BF92CF92DF92EF923C
:1010E000FF921F93CF93DF93EC010E9472026B017A
:1010F0007C01A980BA80A114B10429F163E0CE017A
:101100000E94B8068823F9F08C859D85AE85BF8541
:10111000B701A601481B590B6A0B7B0BC501B0E058
:10112000A0E0481759076A077B0768F48A85DF91B2
:10113000CF911F91FF90EF90DF90CF90BF90AF9035
:101140009F908F90089588810E941C015C0161E04E
:10115000CE010E94B80611E0882321F0AB2821F4CB
:1011600010E002C0AB28E1F762E0CE010E94B806B1
:10117000882311F081E0182760E0CE010E94B806B4
:10118000811388C063E0CE010E94B806811126C099
:1011900011113DC01A8688899989AA89BB89C81A04
:1011A000D90AEA0AFB0A8D819E81B0E0A0E08C1585
:1011B0009D05AE05BF0508F0B9CF64E0CE010E94E1
:1011C000B806882341F066E0CE010E94B806882365
:1011D00011F085E08A878B858F738B878A858330B2
:1011E00008F4A4CF853018F0863009F09FCF109115
:1011F0006802612F83E692E00E94D107882309F4F8
:1012000095CF612F83E692E00E9448088FCF8C85AE
:101210009D85AE85BF8546015701881A990AAA0A9D
:10122000BB0A67E0CE010E94B8064B815C8170E08A
:1012300060E084169506A606B70610F4882371F0C0
:101240009F8181110EC0923021F4CC86DD86EE861E
:10125000FF868B8580688B8786E01AC081E08A874D
:10126000BDCF913081F09230B9F788859985B0E093
:10127000A0E088169906AA06BB0648F0CC86DD8653
:10128000EE86FF86E9CF9A878B858F7BA6CF81E09C
:101290008A87FACFA980BA80A114B10461F163E012
:1012A000CE010E94B806811113C0CC86DD86EE8681
:1012B000FF868B8588608B878A85863021F48F81B5
:1012C000882309F494CF60E0CE010E94B806C7CF0E
:1012D0008C859D85AE85BF85B701A601481B590B3E
:1012E0006A0B7B0BC501B0E0A0E0481759076A07FD
:1012F0007B0708F473CFCC86DD86EE86FF86A701D8
:101300009601612FCE010E94440768CFCF92DF92F1
:10131000EF92FF920F931F9391E09093100298E643
:10132000909332021092110210923302682F84E3DC
:1013300092E00E943F0481E00E94E6020E944D027A
:101340006B017C0180910A02811163C081E080936E
:101350000A02809309029FEF9093080210920702FD
:10136000109206028093E5018091E501806D8093E3
:10137000E5018091E401813009F080C01092E40120
:101380000E944D026B017C018091E5018093BB00BE
:1013900080910C0290910D02A0910E02B0910F026B
:1013A000892B8A2B8B2BA1F00E944D0200910C02FD
:1013B00010910D0220910E0230910F026C197D09DF
:1013C0008E099F09061717072807390708F442C036
:1013D0008091BC0083FDD8CF85EC8093BC000E9437
:1013E0004D026B017C0180910A02813009F448C0F2
:1013F00080910702811166C080910702A6EEB1E0DC
:10140000E4ECF1E090E0981751F12D9121939F5F6A
:10141000FACF80910C0290910D02A0910E02B09132
:101420000F02892B8A2B8B2B09F48CCF0E944D0243
:1014300000910C0210910D0220910E0230910F02CA
:101440006C197D098E099F090617170728073907A8
:1014500008F078CF80910B020E94C50280E01092C4
:10146000C3018093C20184E392E00E94F8031F91BC
:101470000F91FF90EF90DF90CF90089585EEADCF64
:1014800080910C0290910D02A0910E02B0910F027A
:10149000892B8A2B8B2B09F4A6CF0E944D02009139
:1014A0000C0210910D0220910E0230910F026C1966
:1014B0007D098E099F09061717072807390708F0C5
:1014C00092CFC8CF81E09ACF0E94D603882341F003
:1014D00082E00E948609682F6F7B82E00C946E0484
:1014E00008951F93CF93DF93C82F162F60E080E0FD
:1014F0000E946E04DAE0812F6D2F0E94621D82959A
:10150000807F682F690F81E00E946E0482E00E9454
:10151000860986FF23C0CD30C0F084EF8C0F6D2F7D
:101520000E94621D682F6295607F690F606682E08D
:101530000E946E048FE00E948609682F6F778FE00B
:10154000DF91CF911F910C946E048C2F6D2F0E9410
:10155000621D8295807F682F690FE9CF8C2F6D2FD8
:101560000E94621D682F6295607F690F6F7BDFCFDD
:101570000F931F93CF93DF93C0916B026C2F83E681
:1015800092E00E94D107811110C08091B801835070
:10159000823030F483E080934D0184E080934C01ED
:1015A0006C2F83E692E00E9448080E94720200912C
:1015B00048011091490120914A0130914B01601B73
:1015C000710B820B930B683E73408105910508F403
:1015D00078C00E9472026093480170934901809321
:1015E0004A0190934B010E94DB0080914D018330B2
:1015F000C9F50E94D603C1E88823C1F081E10E94A9
:101600008609C82F82E10E948609DC2FC82F86E058
:10161000D595C7958A95E1F7CE0183709927D69520
:10162000C795D695C795039709F421960C2E000C03
:10163000DD0B0E94DB0083E680935302D7FF06C0D8
:10164000D195C195D10980E480935102C436D1056A
:10165000C4F080E480935002809351028093520240
:101660008093530280914D018F5F80934D01909143
:101670004C01981730F5DF91CF911F910F910C9489
:101680001908CA30D1058CF080915102803411F4D0
:1016900080935002CE016AE070E00E94901DFB0131
:1016A000E65FFE4F808180935102CE016AE070E0D8
:1016B0000E94901DFC01E65FFE4F808180935202E4
:1016C000D1CFDF91CF911F910F9108954F925F92EB
:1016D0006F927F928F929F92AF92BF92CF92DF9242
:1016E000EF92FF921F93CF93DF93CDB7DEB7299789
:1016F0000FB6F894DEBF0FBECDBF2091B501298390
:10170000622F80E692E00E94D10781117DC069813D
:1017100080E692E00E9448081092640110926301F2
:101720008091640190E00896880F991F880F991F97
:10173000FC01E859FF4F4590559065907490FC016D
:10174000E85BFF4F85919591A591B49189839A8328
:10175000AB83BC8380910101873009F474C08F3F53
:1017600009F4F0C0F090640124E0F29EF00111242D
:10177000E857FF4F85909590A590B4901091B501D2
:10178000612F80E692E00E94BF07882301F18091DB
:10179000610290916202ABE01A02800D911D11244A
:1017A0009A838983FC0185829682A782B08681858F
:1017B0009285892B61F081E080830E947202A98169
:1017C000BA8111966D937D938D939C93149781E0CC
:1017D0008F0D883008F00EC28093640129960FB6F1
:1017E000F894DEBF0FBECDBFDF91CF911F91FF9068
:1017F000EF90DF90CF90BF90AF909F908F907F90B1
:101800006F905F904F90089580914402823009F468
:1018100087CF698180E692E029960FB6F894DEBF03
:101820000FBECDBFDF91CF911F91FF90EF90DF9062
:10183000CF90BF90AF909F908F907F906F905F9070
:101840004F900C94F007E8EAF0E09491998797FDA7
:1018500089CF61E087E00E947301B985BB2321F045
:10186000E985E23009F056C189809A80AB80BC805E
:10187000AA24BB2460E072E18AE790E0A50194010C
:101880000E94C61D2D833E834F83588769017A01CC
:10189000F1E0CF1AD108E108F1082FEFC216D10408
:1018A000E104F10409F00CF40AC160E472E48FE091
:1018B00090E0A50194010E94C61D69017A0181E0B2
:1018C000C81AD108E108F1089985923009F0ABC037
:1018D00082E0AFEFCA16D104E104F10409F00CF480
:1018E00005C260E970ED83E090E0A50194010E94DB
:1018F000C61D69017A01B1E0CB1AD108E108F108EF
:1019000083E0EFEFCE16D104E104F10409F00CF40A
:10191000EDC168E478EE81E090E0A50194010E94B9
:10192000C61D69017A01A1E0CA1AD108E108F108CF
:10193000BFEFCB16D104E104F10411F00CF097C015
:1019400084E0D4C187E080930101E8EAF0E0A4914B
:10195000A987AF3F09F406CFA13029F158F0A23092
:1019600009F43FC0E985E7FDFDCE61E087E00E9414
:10197000730176CF14BC15BC84B5826084BD85B577
:10198000816085BDEEECF0E0E491F0E0EE0FFF1F2A
:10199000ED54FF4F85919491E2EEF0E0E491E093F5
:1019A0005A01198656CF10928000109281008091C2
:1019B00081008860809381008091810081608093A4
:1019C0008100EEECF0E0E491F0E0EE0FFF1FED544B
:1019D000FF4F85919491E2EEF0E0E491E09359019C
:1019E00038CF1092B0001092B1008091B0008260A8
:1019F0008093B0008091B10081608093B100EEECE3
:101A0000F0E0E491F0E0EE0FFF1FED54FF4F859101
:101A100094919093AA018093A901E2EEF0E0E49101
:101A2000E093AB0116CFFFEFCF16D104E104F10430
:101A300009F00CF46DC068E478EE81E090E0A50157
:101A400094010E94C61D69017A0181E0C81AD1087B
:101A5000E108F1089985992309F414C1FFEFCF1625
:101A6000D104E104F10409F00CF46ACF14C164E27A
:101A700074EF80E090E0A50194010E94C61D690109
:101A80007A01A1E0CA1AD108E108F10885E0BFEFA8
:101A9000CB16D104E104F10409F008F427C162E196
:101AA0007AE780E090E0A50194010E94C61D6901DB
:101AB0007A0181E0C81AD108E108F108FEC081E08E
:101AC0002985211113C195B5987F892B85BD2FEFED
:101AD0003FEFA901411451046104710409F048C0A9
:101AE000E985E13009F464C0E23009F473C0E11122
:101AF00039CEC7BC20935F013093600140936101F0
:101B00005093620180916E00826080936E002ACEB5
:101B100082E0D6CF89809A80AB80BC80AA24BB2487
:101B200060E072E18AE790E0A50194010E94C61D81
:101B300069017A0181E0C81AD108E108F108C114ED
:101B4000D10491E0E906F10414F591E0B985B130D2
:101B500009F0BDCF80918100887F892B809381001F
:101B60002FEF3FEFA901411451046104710401F109
:101B7000A981BA81AA0FBB1FA30192010E94FB1D7C
:101B800028EE33E040E050E00E94A41DA9CF68E4B5
:101B900078EE81E090E0A50194010E94C61D6901E4
:101BA0007A01A1E0CA1AD108E108F10893E0CECF8A
:101BB000D0928900C092880020935B0130935C0131
:101BC00040935D0150935E0180916F00826080932D
:101BD0006F00C8CDC092B3002093AC013093AD012B
:101BE0004093AE015093AF0180917000826080936A
:101BF0007000B8CD10926401809163018F5F8C33C7
:101C000018F480936301EACD10926301612F80E69E
:101C100092E00E94F007612F80E692E00E94BF07E9
:101C2000882389F0E0916102F0916202BBE01B021F
:101C3000E00DF11D112482E390E0A0E0B0E0858387
:101C40009683A783B08781E080934402C7CD84E068
:101C50002FEFC216D104E104F10409F008F433CFE8
:101C6000CD80DE80EF80F8849AE0F594E794D794F5
:101C7000C7949A95D1F7F1E0CF1AD108E108F1089D
:101C800085E021CF83E0EFEFCE16D104E104F1042B
:101C900009F00CF418CF62E17AE780E090E0A5014A
:101CA00094010E94C61D69017A01E1E0CE1AD108B3
:101CB000E108F108F985FF2351F286E09FEFC9168C
:101CC000D104E104F10491F088F0CD80DE80EF8052
:101CD000F8848AE0F594E794D794C7948A95D1F76D
:101CE00081E0C81AD108E108F10887E09091B100BD
:101CF000987F892B8093B100EACE0F931F93CF93E7
:101D0000DF9300D0CDB7DEB70091420210914302BD
:101D1000080F111DC8010E944C1D8983C80101963E
:101D20000E944C1D8A8389819A810F900F90DF91C8
:101D3000CF911F910F91089581E00C947D0E83E067
:101D40000C947D0E0F931F93CF93DF938C010E9411
:101D50009C0EEC010E949F0EAC01F80180819181E4
:101D6000803AF5E09F0728F0805A9540F80191836A
:101D70008083C417D50751F0F80120813181C41741
:101D8000D50730F481E02C173D0730F480E007C020
:101D900081E02C173D0718F424173507B8F7DF91B9
:101DA000CF911F910F910895AF92BF92CF92DF9282
:101DB000EF92FF920F931F93CF93DF9300D0CDB795
:101DC000DEB75C010E949C0E8C010E949F0EAC014C
:101DD000F501238130E0A0E1BEE00E94E51D6B012A
:101DE0007C01248130E0ACE3B0E00E94E51DC60E2A
:101DF000D71EE81EF91E8581C80ED11CE11CF11CFE
:101E00004017510738F4F0E8CF0EF1E5DF1EF1E09E
:101E1000EF1EF11C1A83098385E00E947D0E5C0190
:101E200049815A81FA01EA0DFB1D9A01ACE3B0E049
:101E30000E94E51D6C157D058E059F0518F15A83DE
:101E40004983CE0101960E94A20E811102C01A831D
:101E5000098389819A81803A25E0920710F0805A9F
:101E6000954090934602809345020F900F90DF912A
:101E7000CF911F910F91FF90EF90DF90CF90BF9087
:101E8000AF900895AF01CECF0F931F93CF93DF9301
:101E900000D000D000D0CDB7DEB7809144028230B0
:101EA00079F4EAE5F2E080E0A191B191109729F090
:101EB0001A969C919350923028F18F5F8330A1F74E
:101EC00080915601882351F0CE0101960E94C200F4
:101ED000CE0101960E94D40E109256018091B80155
:101EE0008330B0F4E0915A02F0915B028130E8F067
:101EF000309781F084898150823060F481E0809352
:101F0000560108C091E0909344020E94370702C036
:101F10008930E1F126960FB6F894DEBF0FBECDBF33
:101F2000DF91CF911F910F910895309729F082850D
:101F30008430F9F0853021F1E0915C02F0915D028E
:101F4000309741F38285863029F7809144028823B7
:101F500009F30E949C0E8C010E949F0E081719071E
:101F6000C9F289E08093B80188E08093570181E04D
:101F7000CCCF8AE08093B80180E00E943707DCCFA5
:101F8000809144028823C1F289E0F4CFE0915A02A3
:101F9000F0915B02309709F4BDCF8285853009F05E
:101FA000B9CF6091B60180E692E00E94F0071092EE
:101FB000B80180E0AACFCF92DF92EF92FF920F9309
:101FC0001F93CF93DF93CDB7DEB728970FB6F89462
:101FD000DEBF0FBECDBFCE0101960E94C2008C8134
:101FE000ED80F12C2CE3829FE00CF11C1124F8868B
:101FF000EF8280914402823009F06FC01091580145
:1020000081E0810F823008F065C08093580160E064
:10201000809140020E944501612F809141020E94FF
:102020004501809144028130C1F500914502109133
:1020300046022CE330E0D7010E94F41D2E816B0193
:102040007C01C20ED11CE11CF11C9801ACE3B0E094
:102050000E94E51DC616D706E806F906F1F482E0EF
:102060008093440285E00E947D0E800F911F803A8C
:1020700025E0920710F0805A954090934602809395
:10208000450285E492E00E94A20E811106C00E94E2
:102090009C0E9093460280934502809144028230C8
:1020A00051F46091B50180E692E00E94D107811160
:1020B00002C00E94660B28960FB6F894DEBF0FBED2
:1020C000CDBFDF91CF911F910F91FF90EF90DF90E7
:1020D000CF900895109258019ACF10E0882309F408
:1020E00096CFCE0107960E94A20E10E061E08823F1
:1020F00009F48ECF11E08BCFFF920F931F93CF93F4
:10210000DF930E949C0EEC010E949F0EFF24F3942B
:10211000C817D90711F084E0F82E1091B601612F8D
:1021200080E692E00E94D107811113C0612F80E602
:1021300092E00E944808109255011092540180913B
:102140005701883031F40E949C0E90935301809384
:102150005201D09155018091570101E00D0F81117D
:1021600046C0C0915401C13001F168F0C23009F19C
:10217000809145029091460227E0C33039F022E079
:1021800090E080E003C00E949C0E22E0D830B0F4C2
:10219000822F0E9401050431D8F400935501DF918C
:1021A000CF911F910F91FF9008950E949F0E24E000
:1021B000EDCF85E00E947D0E26E0E8CF6CE370E075
:1021C0000E947C1D962F682F892F0E94D106E3CF95
:1021D00010925501CF5FC0935401CF1500F3612FCA
:1021E00080E692E00E94F0071092B801D8CFD45058
:1021F000DC3038F188E00E940105043170F2109261
:102200005501809154018F5F8093540185E00E94B5
:102210007D0E2091520130915301820F931F9093B4
:1022200053018093520182E591E00E94A20E811138
:10223000B6CF612F80E692E00E94F007109257011E
:10224000D3CF80915201909153016CE370E00E94D2
:102250007C1D962F682F892F0E94D106CECF0C941B
:102260004C1D0F931F93CF9360916D0283E692E014
:102270000E94D107882331F08091B80186508230C6
:1022800008F442C0C091540280913F01811109C0FD
:102290000E94E20090933E0180933D0181E0809393
:1022A0003F0100913D0110913E01000F111F0E945E
:1022B000E200800F911F63E070E00E947C1D8B01A3
:1022C00070933E0160933D018FE590E00E942F11D5
:1022D0002091020130910301482F429FC001439F8A
:1022E000900D11240817190798F482E690E00E94D7
:1022F0002F11C82F8C2FC83008F087E0809354022C
:10230000C770C860C0934D02CF911F910F9108957F
:1023100036952795280F391F2017310758F783E680
:1023200090E0E5CFDF92EF92FF920F931F93CF9350
:10233000DF93CDB7DEB72C970FB6F894DEBF0FBE94
:10234000CDBF0E94D603882309F4A9C080E00E9473
:102350008609E82E81E00E948609F82E82E00E941C
:102360008609082F84E00E948609182F85E00E94C4
:102370008609D82E86E00E9486093E2D3295377058
:102380009AE02E2D2F70399F200D11244F2D42954C
:102390004F703F2D3F70499F300D1124502F5295A3
:1023A0005F70402F4F70599F400D1124512F52954F
:1023B0005F70E12FEF70599FE00D11245D2D529554
:1023C0005770FD2DFF70599FF00D1124582F529515
:1023D0005F708F70599F800D112490E064E670E06B
:1023E0000E947C1D9FEF9F0F9C3008F0F1E09FEF53
:1023F0009E0F9F3108F0E1E0483108F040E03C33A7
:1024000008F030E02C3308F020E080936E02F09367
:102410006F02E09370024093710230937202209336
:1024200073028091B80181112CC0CE0101960E94E7
:10243000C2008E81811110922C0180E690E00E94F2
:102440002F110E94A605182F8823B9F1CE010796F7
:102450000E94C2008B85612F0E94621D91112DC0C8
:10246000CE0101960E94C2008E81811126C080910A
:102470002C01811122C081E080932C0184E08093A3
:10248000B8012C960FB6F894DEBF0FBECDBFDF911A
:10249000CF911F910F91FF90EF90DF9008951092D0
:1024A0006E0281E080936F0280937002109271023D
:1024B0001092720210927302B4CF00915101CE01BA
:1024C00007960E94C2001B85CE0101960E94C200A1
:1024D000402F612F8C810E942B05D3CFFF920F9349
:1024E0001F93CF93DF9300D000D000D0CDB7DEB7DD
:1024F00010916902612F83E692E00E94D107811159
:1025000034C0612F83E692E00E944808609168021F
:1025100083E692E00E9448080E94FB058091B80182
:102520008150823070F4CE0101960E94C2008C81ED
:1025300080933B01CE0101960E94C2008D81809361
:102540003A0110923C010E94DB0080E592E00E947B
:10255000230226960FB6F894DEBF0FBECDBFDF91E3
:10256000CF911F910F91FF90089580913C018111AF
:1025700013C08091B8018150823070F4CE01019671
:102580000E94C2008C8180933B01CE0101960E9483
:10259000C2008D8180933A01E0915A02F0915B0272
:1025A0003097B1F18489882399F180913C01882387
:1025B000B9F08091B8018150823080F40E94640AA1
:1025C00000913A0110913B010E94D603882321F02B
:1025D000602F812F0E94710A0E94921110923C017B
:1025E000E0915A02F0915B0280916902309741F0CC
:1025F0009489148A913021F49091B801913019F0A6
:102600001092B80103C092E09093B8010E943B0879
:10261000E0915C02F0915D02309709F446C0848934
:10262000813009F042C08489148A41E0813009F088
:1026300040E08091B801813009F449C0823009F44A
:102640004EC081E080933C011091B801112309F440
:1026500080CF6091690283E692E00E94D1078823CF
:1026600009F477CFF0903A0100913B01809151013C
:10267000811110C081E00E94C20681110BC082E06E
:102680000E94C206811106C0113079F1123011F496
:10269000FF24FA940E94DB0041E0133008F040E090
:1026A0006F2D802F0E942B0554CFA0915E02B09118
:1026B0005F02109749F254968C91549754961C924D
:1026C000813011F6309709F0AECF80E0AECF01E057
:1026D00020E067E18BE391E00E941106B2CF01E0B8
:1026E00020E06BE38AE391E0F7CF0FEFD3CF85EDE6
:1026F0008093BC0080910C0290910D02A0910E027B
:10270000B0910F020796A11DB11D23E0B695A795C4
:10271000979587952A95D1F72091BC0024FD03C099
:1027200010920A02089540910C0250910D0260919E
:102730000E0270910F02452B462B472B69F3009731
:10274000A105B10541F02AE22A95F1F700C00197F1
:10275000A109B109E1CF80910B020C94C5021F932E
:10276000CF93DF93EC01162F0E944C1D181739F000
:10277000612FCE01DF91CF911F910C94541DDF91F9
:10278000CF911F9108950F93CF93DF93D0916D0256
:102790006D2F83E692E00E94D107C091B8018111AC
:1027A0002EC06D2F83E692E00E9448086091680277
:1027B00083E692E00E9448080E94FB05C630E1F0E3
:1027C00068F48FE590E0C53079F00E94DB0080E589
:1027D00092E0DF91CF910F910C942302C73049F022
:1027E00080E690E0C83089F70E942F11809347015E
:1027F000ECCF83E690E0F8CF82E690E0F5CFE09171
:102800005A02F0915B02309781F0D489DD2369F0A0
:10281000148AC63009F463C008F049C060914701CA
:102820008FE590E0C53009F44BC0E0915C02F09177
:102830005D02309709F463C08489813009F05FC07C
:102840008489148A41E0813009F040E08091B80128
:10285000883008F068C0863008F070C000E021E0E1
:1028600069E0853009F465C0D091B801DD23D9F065
:10287000C0915101C11165C081E00E94C206811161
:1028800005C082E00E94C206C1E0C827D83008F027
:102890005AC0D63008F062C04C2F6091470183E0E7
:1028A000D53009F46AC0DF91CF910F910895C730F8
:1028B00051F06091470180E690E0C83009F0B5CF53
:1028C0000E94AF1309C06091470183E690E00E9427
:1028D000AF1385E0D13061F01092B8010BC0609168
:1028E000470182E690E00E94AF13D130A9F787E05C
:1028F0008093B80180916D020E943B0896CFA09111
:102900005E02B0915F02109709F4AECF54968C919D
:10291000549754961C92813009F0A6CF309709F055
:102920008FCF80E08FCF00E020E0883009F09CCF8F
:1029300067E087E491E00E94110696CF00E021E075
:10294000F7CFC0E0A3CFD83009F0ADCF80914701D9
:102950000E94A6054C2F682F81E00FC060914701AF
:10296000862F683008F087E080935402862F8770A6
:10297000886080934D024C2F82E0DF91CF910F91C0
:102980000C946505FF920F931F93CF93DF93EC0197
:102990008B01FB01F0800E944C1DF81621F06F2D79
:1029A000CE010E94541DF801F1802196CE010E94B3
:1029B0004C1DF81621F06F2DCE010E94541DC80148
:1029C000DF91CF911F910F91FF9008950F931F9367
:1029D000CF93DF93CDB7DEB72C970FB6F894DEBF59
:1029E0000FBECDBF1091B401612F80E692E00E942E
:1029F000D10781111AC0612F80E692E00E94480839
:102A00006091B70180E692E00E94480880915701EA
:102A1000823010F010920001843028F5823068F581
:102A2000813009F447C010924E0190910001983016
:102A300008F04DC080915701282F2B7F223019F0CC
:102A4000843009F044C09F5F909300010E9401050B
:102A50002C960FB6F894DEBF0FBECDBFDF91CF919D
:102A60001F910F9108958630C8F08630E1F685E019
:102A70000E947D0E80935001D6CF0E949C0E0CE3E5
:102A800010E0B8010E947C1D609350010E949C0ED2
:102A9000B8010E947C1D80934F01C5CF0E949F0EFC
:102AA0000CE310E0B8010E947C1D609350010E946D
:102AB0009F0EEECF80914202909143020E942F110F
:102AC00091E0811101C090E090935001ACCFE09172
:102AD0005A02F0915B023097F1F184898823D9F191
:102AE0006091B70180E692E00E94480880914E0113
:102AF0008823C9F020914F01809150019091570196
:102B0000943008F055C0923008F066C0913009F456
:102B100087C0CE0101960E94C200CE0101960E949C
:102B2000D40E10924E01E0915A02F0915B02309760
:102B300091F08489813009F0AFC01092000180913A
:102B40005701863009F07AC0E0915A02F0915B0299
:102B5000309709F09FC0E0915C02F0915D023097E0
:102B600009F4B0C08489813009F0ACC06091B7012C
:102B700080E692E00E944808E0915C02F0915D02DC
:102B800020E0309711F02489148A809150019091AF
:102B90005701933009F4D3C008F0ADC0913009F467
:102BA000E3C0923009F4B8C081E080934E0195C033
:102BB000963028F1963009F0ACCF853B08F084EBD5
:102BC00090E098878F838091420290914302BE01EA
:102BD000695F7F4F059610C030E09CE3899F200D10
:102BE000311D11243C872B87809142029091430232
:102BF000BE01655F7F4F01960E94C2148ACF30E00C
:102C00009CE3899F200D311D11243A8729878091EB
:102C1000420290914302BE01675F7F4F0396ECCF63
:102C200011E0811101C010E0612F8091420290916A
:102C300043020E94AF13109344026BCF8130E9F43A
:102C400080914402882309F47FCF80915701873017
:102C500010F08830E9F48F5F809357016091B401E0
:102C600080E692E00E94F007E0915A02F0915B0248
:102C7000309709F4EDCE148AEBCE853031F70E94FF
:102C80009C0E8C010E949F0E08171907F1F65CCF6D
:102C900080E0E2CF82E0848B8489148A823009F05C
:102CA0005ACF6091B70180E692E00E94F0076091F0
:102CB000B40180E692E00E94F0071092B8011092F1
:102CC0005701C6CEE0915E02F0915F02309729F085
:102CD0008489148A813009F449CF10915001809180
:102CE0005701813009F44DC0863009F46AC0609103
:102CF0004F01812F6BC0953011F170F0963009F0C3
:102D000053CF2130B9F5865F8093500180915001F7
:102D10008A3090F58AE00EC0213079F48F5F80937D
:102D2000500180915001883108F43ECF80E021307D
:102D300009F087E18093500137CF8150F0CF809127
:102D40004F01213079F48F5F80934F0180914F01C3
:102D50008C3308F429CF80E0213009F08BE3809395
:102D60004F0122CF8150F0CF8F5F823018F3109245
:102D700050011ACF8A50C8CF853B08F415CF84EB99
:102D8000D9CF87E78093500288EB8093510210924D
:102D900052028091510181110DC081E00E94C20652
:102DA000811108C082E00E94C206811103C0109206
:102DB00053024ECE8CE5111101C088E0809353027E
:102DC00047CE812F6CE30E94621D692F0E94D106BD
:102DD0003FCE8091B801893019F08A3059F00895BA
:102DE0006091B60180E692E00E94D107811113C084
:102DF0000C947C106091B40180E692E00E94D107AF
:102E0000811109C080915701811103C081E0809335
:102E100057010C94E61408951F93CF93DF93EC01B0
:102E2000162F89819A81009711F00E94C41E188381
:102E30006BE070E0812F90E00E940C1E9A838983E2
:102E4000892B09F41882DF91CF911F9108951F9269
:102E50000F920FB60F9211242F933F938F939F934E
:102E6000AF93BF938091BA019091BB01A091BC0137
:102E7000B091BD013091B90123E0230F2D3758F5F2
:102E80000196A11DB11D2093B9018093BA019093C1
:102E9000BB01A093BC01B093BD018091BE01909194
:102EA000BF01A091C001B091C1010196A11DB11D4A
:102EB0008093BE019093BF01A093C001B093C10164
:102EC000BF91AF919F918F913F912F910F900FBE26
:102ED0000F901F90189526E8230F0296A11DB11D93
:102EE000D2CF1F920F920FB60F9211242F933F93C0
:102EF0004F935F936F937F938F939F93AF93BF9302
:102F0000EF93FF938091AC019091AD01A091AE0140
:102F1000B091AF01892B8A2B8B2BD1F19091AB0112
:102F2000E091A901F091AA01808189278083809195
:102F3000AC019091AD01A091AE01B091AF01181616
:102F400019061A061B069CF48091AC019091AD0104
:102F5000A091AE01B091AF010197A109B109809391
:102F6000AC019093AD01A093AE01B093AF01FF917E
:102F7000EF91BF91AF919F918F917F916F915F91F1
:102F80004F913F912F910F900FBE0F901F9018956A
:102F900080910101E8EAF0E0E4919FEF9093010154
:102FA000E13051F030F0E23069F060E00E9445011C
:102FB000DECF10926E00F9CF90916F009D7F9093BD
:102FC0006F00F3CF909170009D7F9093700091E01F
:102FD0009093B0009091B100987F94609093B1006D
:102FE0001092B300E2CF1F920F920FB60F921124EE
:102FF0002F933F934F935F936F937F938F939F9301
:10300000AF93BF93EF93FF938091B900887F803691
:1030100009F44AC0F0F5883209F4A7C018F58031E8
:1030200009F49BC0B8F4882309F4F9C0883009F486
:1030300094C0FF91EF91BF91AF919F918F917F913C
:103040006F915F914F913F912F910F900FBE0F9015
:103050001F901895883109F488C0803251F7809309
:10306000080214C0803409F49DC040F48033B9F3E1
:103070008833F9F68093080285ECB0C0803509F4F6
:1030800085C0883509F496C0883499F60E94771374
:10309000D0CF883909F48CC038F5883729F050F43E
:1030A000883611F0803729F683E080930A02109267
:1030B000A80157C0883809F47BC0803919F08038DE
:1030C00009F0B7CF8091A801803208F071C0E0917B
:1030D000A80181E08E0F8093A8018091BB00F0E0F1
:1030E000E857FE4F80833DC0803B39F0E0F4803AE2
:1030F00009F479C0883A09F09CCF84E080930A02F1
:103100001092870110928601E091B201F091B30113
:1031100009958091860181110FC081E0809386011D
:103120001092660109C0803C09F4A6CF883C09F4DE
:10313000A3CF883B09F07DCFE091870181E08E0F1E
:1031400080938701F0E0EA59FE4F80818093BB00B5
:10315000909187018091860129C08091E50180933B
:10316000BB0085EC8093BC0064CF909107028091F6
:103170000602981758F5E091070281E08E0F8093C0
:103180000702F0E0EA51FE4F8081E9CFE0910702AB
:1031900081E08E0F809307028091BB00F0E0EA513E
:1031A000FE4F808390910702809106029817C8F223
:1031B00085E8D8CFE091070281E08E0F8093070267
:1031C0008091BB00F0E0EA51FE4F808380910902BC
:1031D00081115CCF81E08093E40184EA8093BC009C
:1031E00010920A0226CF85EC8093BC0010920A024E
:1031F0008091A801803230F4E091A801F0E0E85716
:10320000FE4F10826091A80170E0E091B001F09152
:10321000B10188E891E009951092A8010ACF1092B7
:10322000080234CFCF93DF9300D000D000D0CDB7C9
:10323000DEB7109237021092360288EE93E0A0E0DB
:10324000B0E08093380290933902A0933A02B09391
:103250003B028EE191E0909335028093340280E14D
:10326000809373028CE18093720286E080937102F6
:1032700020E081E697E9E3E9FEEF322F337041E089
:1032800050E011F050E040E061E0620FDA01A35934
:10329000BE4F8A179B0738F09F01241B350B820F06
:1032A000931F262FEACF20936E0221E0422F415038
:1032B000550BFA01ED5FFE4FE491311103C022304E
:1032C00009F4EF5FF0E041E0420F8E179F0720F016
:1032D0008E1B9F0B242FEACF20936F028F5F80936A
:1032E00070028FEF8093660280936702809368027A
:1032F0008093690280936A0280936B0280936C02D0
:1033000080936D0210926302109265021092640223
:1033100010926002109262021092610210925B029F
:1033200010925A0210925D0210925C0210925F029B
:1033300010925E0285E080934B0286E080934C02FF
:1033400084E690E090934F0280934E0260E085E027
:103350000E94730160E080914C020E94730160E062
:1033600080914B020E94450160E080914C020E94D6
:10337000450181E08093540210925502109256024A
:103380001092570210925802109259020E94DB00CC
:1033900010924702109248021092490210924A027B
:1033A00082E08093400261E00E94730183E0809399
:1033B000410261E00E94730182E390E09093430236
:1033C000809342020E942F11823028F060E082E355
:1033D00090E00E94AF1381E00E947D0E803A9540FC
:1033E00070F080EE91E09E838D83809142029091F7
:1033F0004302BE016B5F7F4F01960E94C21483E0BF
:103400000E947D0E803A954070F08DEF93E09C8392
:103410008B838091420290914302BE016D5F7F4F8A
:1034200003960E94C21485E00E947D0E853B9105A3
:10343000F8F08CE390E09A83898380914202909126
:103440004302BE016F5F7F4F05960E94C2148091B8
:103450004202909143020E942F11809344022696CB
:103460000FB6F894DEBF0FBECDBFDF91CF910895A8
:1034700085E00E947D0E0A97E0F2E9CFCF93DF93BB
:1034800000D000D000D0CDB7DEB7789484B582608C
:1034900084BD84B5816084BD85B5826085BD85B5F8
:1034A000816085BD80916E00816080936E00109276
:1034B00081008091810082608093810080918100F1
:1034C0008160809381008091800081608093800082
:1034D0008091B10084608093B1008091B0008160E0
:1034E0008093B00080917A00846080937A0080910C
:1034F0007A00826080937A0080917A008160809364
:103500007A0080917A00806880937A001092C100DE
:1035100085E190E00E94281E8C0140E06AE00E9454
:10352000850610935B0200935A0285E190E00E94A9
:10353000281E8C0141E068E00E94850610935D0220
:1035400000935C0285E190E00E94281E8C0141E01E
:1035500069E00E94850610935F0200935E0280E698
:1035600090E00E942F11883028F061E080E690E022
:103570000E94AF138FE590E00E942F118150893097
:1035800028F063E08FE590E00E94AF132AE081E02D
:1035900090E0880F991F2150E1F76AE070E00E94E7
:1035A0007C1D709303016093020183E690E00E940A
:1035B0002F119FEF980F973008F087E0682F83E670
:1035C00090E00E94AF138FE590E00E942F11815090
:1035D000893028F063E08FE590E00E94AF1382E627
:1035E00090E00E942F119FEF980F973008F081E034
:1035F000682F82E690E00E94AF131092C3011092F0
:10360000C20110921102109233020E94A7028EE7AB
:1036100092E09093B3018093B2018FE792E0909390
:10362000B1018093B0010E94D60381111FC00E9496
:10363000640A0E94D603882321F060E080E00E94A3
:10364000710A0E94D603882341F061E084E00E9461
:103650006E0461E085E00E946E040E94D603882318
:1036600079F060E086E00E946E040AC08FE00E945C
:10367000860990E0880F892F881F990B892BB9F64E
:103680008EE00E9486098376682F60648EE00E9437
:103690006E040E94921181E08093540289E080932D
:1036A0004D0268E083E692E00E940C1767E080E636
:1036B00092E00E940C1700E029E138E040E757E172
:1036C00060E070E083E692E00E948B0780936802DE
:1036D00001E022E931E142E350E060E070E083E69E
:1036E00092E00E948B07809366022CE236E042E370
:1036F00050E060E070E083E692E00E948B078093E8
:10370000670200E02EE632E142E350E060E070E064
:1037100083E692E00E948B078093690228EB3AE0EF
:1037200044E650E060E070E083E692E00E948B07A0
:1037300080936B0201E020ED35E042E350E060E071
:1037400070E083E692E00E948B0780936A0221E397
:1037500031E144E650E060E070E083E692E00E94F0
:103760008B0780936C0200E023EC33E142E350E0EE
:1037700060E070E083E692E00E948B0780936D0228
:10378000CE0101960E94C200CE0101960E94D40E85
:1037900027E038E040E757E160E070E080E692E043
:1037A0000E948B078093B7012CE730E144E650E09C
:1037B00060E070E080E692E00E948B078093B601A3
:1037C00001E029EE36E142E350E060E070E080E69F
:1037D00092E00E948B072BED3FE048EC50E060E068
:1037E00070E080E692E00E948B0700E026E63BE076
:1037F00042E350E060E070E080E692E00E948B07D8
:103800008093B50126EE34E144E650E060E070E0DC
:1038100080E692E00E948B078093B40101E024E4EB
:103820003FE041E050E060E070E080E692E00E941E
:103830008B0780E0C82E80E0D82E96E0B92E23E0DA
:10384000A22E38E0932E0E9472020091470210913E
:1038500048022091490230914A026017710782079D
:10386000930709F48FC00E9472026093470270931D
:1038700048028093490290934A0280915A029091A3
:103880005B02009741F01091B8010E9469088530F1
:1038900051F18630C1F180915C0290915D020097F8
:1038A00011F00E94690880915E0290915F0200977A
:1038B00011F00E9469088091B8018330E8F58130E9
:1038C00008F467C082E00E94C206811103C081E053
:1038D0000E94BA0581E00E94C206811134C082E0D4
:1038E0000E94BA0530C01130B0F2133018F01550F4
:1038F000183088F6E0915A02F0915B0281E030972F
:1039000051F2848BC8CF133058F4113088F0E09115
:103910005A02F0915B02309709F4BDCF82E0F1CFFB
:103920001530A9F308F4B7CF1850153080F3B3CF92
:1039300081E08093B801AFCF833009F47BC085501C
:10394000883008F4BFCF8091640290916502892B82
:1039500021F083E692E00E948B04809161029091B5
:103960006202892B21F080E692E00E948B04809114
:10397000B801853008F06CC0833008F082C0813017
:1039800008F074C0C114D10409F45DCF0E94000096
:103990005ACFE0915E02F0915F02309769F0828524
:1039A000863051F481E00E94C206811105C09092D8
:1039B000B80182E00E94370700915C0210915D021D
:1039C000E0905E02F0905F020115110549F0F801E8
:1039D0008285853011F4A092B801E114F104C9F494
:1039E000E114F10409F4AFCF0115110509F4ABCFCF
:1039F000F7018285863009F0A6CF60E0C8010E94F9
:103A0000B806882309F49FCFC7010E942807C80180
:103A10000CC0863029F760E0C7010E94B8068823F1
:103A2000F9F2C8010E942807C7010E942807B09236
:103A3000B80189CFE0915C02F0915D02309709F402
:103A400082CF8285853009F07ECF0E9419087BCF16
:103A5000893008F097CF60916D0283E692E00E9472
:103A6000D10781118FCF0E94C3138CCF609169025F
:103A700083E692E00E94D107811184CF0E946E12EA
:103A800081CF60916B0283E692E00E94D1078111A1
:103A900079CF0E94B80A76CFF999FECF92BD81BD49
:103AA000F89A992780B50895262FF999FECF1FBA65
:103AB00092BD81BD20BD0FB6F894FA9AF99A0FBE57
:103AC00001960895991B79E004C0991F961708F094
:103AD000961B881F7A95C9F78095089587FB082E55
:103AE000062687FD819567FD61950E94621D0EF493
:103AF000919507FC81950895AA1BBB1B51E107C056
:103B0000AA1FBB1FA617B70710F0A61BB70B881F6D
:103B1000991F5A95A9F780959095BC01CD010895FC
:103B200097FB072E16F4009407D077FD09D00E946A
:103B30007C1D07FC05D03EF4909581959F4F08951C
:103B4000709561957F4F0895A1E21A2EAA1BBB1BA9
:103B5000FD010DC0AA1FBB1FEE1FFF1FA217B30759
:103B6000E407F50720F0A21BB30BE40BF50B661F6F
:103B7000771F881F991F1A9469F760957095809533
:103B800090959B01AC01BD01CF010895052E97FBD7
:103B90001EF400940E94DD1D57FD07D00E94A41D55
:103BA00007FC03D04EF40C94DD1D509540953095E4
:103BB00021953F4F4F4F5F4F089590958095709599
:103BC00061957F4F8F4F9F4F0895A29FB001B39F84
:103BD000C001A39F700D811D1124911DB29F700D16
:103BE000811D1124911D08950E94E51DB7FF0895C0
:103BF000821B930B08950E94E51DA59F900DB49F15
:103C0000900DA49F800D911D11240895EE0FFF1FAC
:103C10000590F491E02D09940F931F93CF93DF93B8
:103C2000869F8001879F100D969F100D1124C8015B
:103C30000E94281EEC01009729F0A80170E060E0C6
:103C40000E944D1FCE01DF91CF911F910F910895DA
:103C50000F931F93CF93DF938230910510F482E08E
:103C600090E0E0917602F091770230E020E0B0E061
:103C7000A0E0309799F42115310509F44AC0281BBA
:103C8000390B24303105D8F58A819B816115710586
:103C900089F1FB0193838283FE0111C04081518130
:103CA0000281138148175907E0F04817590799F422
:103CB000109761F012960C93129713961C933296FC
:103CC000CF01DF91CF911F910F910895009376025C
:103CD00010937702F4CF2115310551F042175307A5
:103CE00038F0A901DB019A01BD01DF01F801C1CF64
:103CF000EF01F9CF9093770280937602CDCFFE014A
:103D0000E20FF31F81939193225031093983288365
:103D1000D7CF2091740230917502232B41F420916A
:103D200006013091070130937502209374022091AF
:103D30000401309105012115310541F42DB73EB73D
:103D40004091080150910901241B350BE091740248
:103D5000F0917502E217F307A0F42E1B3F0B281712
:103D6000390778F0AC014E5F5F4F2417350748F0F4
:103D70004E0F5F1F5093750240937402819391938D
:103D80009FCFF0E0E0E09CCFCF93DF930097E9F086
:103D9000FC01329713821282A0917602B0917702D1
:103DA000ED0130E020E01097A1F420813181820FF5
:103DB000931F20917402309175022817390709F07A
:103DC00061C0F0937502E0937402DF91CF91089582
:103DD000EA01CE17DF07E8F54A815B819E014115B4
:103DE0005105B1F7E901FB83EA8349915991C40F69
:103DF000D51FEC17FD0761F4808191810296840F35
:103E0000951FE90199838883828193819B838A83AB
:103E1000F0E0E0E012968D919C9113970097B9F530
:103E20002D913C911197CD010296820F931F209105
:103E30007402309175022817390739F6309751F519
:103E40001092770210927602B0937502A0937402DA
:103E5000BCCFD383C28340815181840F951FC81783
:103E6000D90761F44E5F5F4F88819981480F591FD0
:103E7000518340838A819B819383828321153105FD
:103E800009F0B0CFF0937702E09376029ECFFD0168
:103E9000DC01C0CF13821282D7CFDC0101C06D9349
:0C3EA00041505040E0F70895F894FFCF27
:103EAC000AFF66000000780280003F065B4F666DDB
:103EBC007D077F6F777C395E7971000000003F04CD
:0C3ECC0012048804E8030B04F803E90367
:00000001FF
