:100000000C9489000C94B1000C94B1000C94B100D4
:100010000C94B1000C94B1000C94B1000C94BD167A
:100020000C94B1000C94B1000C94B1000C94B1008C
:100030000C94B1000C94B1000C94B1000C94B1007C
:100040000C9473160C94B1000C94B1000C94B10094
:100050000C94B1000C94B1000C94B1000C94B1005C
:100060000C943F170C94B100D00700000000000072
:10007000D007000000000000D007000000000000D2
:10008000D00700000000000046000000460000000D
:100090004600000046000000460000004600000048
:1000A00046000000FE0100000200000000240027BE
:1000B000002A0000000000250028002B000000009E
:1000C000002300260029000404040404040404029C
:1000D00002020202020303030303030102040810E5
:1000E00020408001020408102001020408102000B2
:1000F00000000800020100000304070000000000E7
:100100000000001F1C1F1E1F1E1F1F1E1F1E1F0082
:100110005E1811241FBECFEFD8E0DEBFCDBF11E0C7
:10012000A0E0B1E0ECE7FDE302C005900D92AC3237
:10013000B107D9F722E0ACE2B1E001C01D92AA37C5
:10014000B207E1F710E0C9E8D0E004C02197FE0152
:100150000E946E1DC838D107C9F70E9470190C940F
:10016000BC1E0C94000080914E0290914F02823090
:10017000910538F0880F991F880F991F05970197EF
:10018000F1F70895FC01A0E7B2E08C91808311960D
:100190008C911197818312968C911297828313967A
:1001A0008C911397838314968C911497848315965E
:1001B0008C918583089587FD18C0209164029091E9
:1001C0006502290F3327331F482F082E000C550BCB
:1001D0004217530754F4E0916602F09167029BE0E6
:1001E0008902E00DF11D11241082089587FD21C0C0
:1001F0002091640290916502290F3327331F482F05
:10020000082E000C550B421753079CF4E091660230
:10021000F0916702309769F09BE08902E00DF11DD3
:1002200011248081882331F081E021853285232BC0
:1002300009F480E00895EBE4F2E01582168217825B
:100240001086089583E480937C0080917A00806416
:1002500080937A0080917A0086FDFCCF80917800AF
:100260009091790008958630F9F048F4823081F059
:100270008430A9F0109252021092530208958730F0
:10028000B9F08830B9F71092500210925102F2CFB3
:1002900083E78093500286E880935102EBCF83E797
:1002A000809350028BEDF8CF8093500288EFF4CF0B
:1002B00083E78093500284EDEFCF833081F028F400
:1002C000813099F08230A9F008958730A9F0883004
:1002D000C9F08430B1F4809180008F7D03C080919B
:1002E00080008F7780938000089584B58F7784BDD8
:1002F000089584B58F7DFBCF8091B0008F77809378
:10030000B00008958091B0008F7DF9CFCF93DF9337
:10031000282F30E0F901E151FF4F8491F901E552B6
:10032000FF4FD491F901E953FF4FC491CC23A1F0C1
:1003300081110E945D01EC2FF0E0EE0FFF1FE354EE
:10034000FF4FA591B491EC91ED2381E090E009F489
:1003500080E0DF91CF91089580E090E0FACF1F9385
:10036000CF93DF93282F30E0F901E151FF4F8491C3
:10037000F901E552FF4FD491F901E953FF4FC491C0
:10038000CC23A9F0162F81110E945D01EC2FF0E023
:10039000EE0FFF1FED54FF4FA591B4918FB7F89466
:1003A000EC91111108C0D095DE23DC938FBFDF9153
:1003B000CF911F910895DE2BF8CFCF93DF9390E07C
:1003C000FC01E552FF4F249189539F4FFC0184911A
:1003D0008823C9F090E0880F991FFC01E755FF4F73
:1003E000A591B491FC01ED54FF4FC591D4916111D9
:1003F0000DC09FB7F8948C91209582238C938881AF
:10040000282328839FBFDF91CF910895623051F454
:100410009FB7F8943C91822F809583238C93E88139
:100420002E2BEFCF8FB7F894EC912E2B2C938FBF00
:10043000EACFCF93DF93CBE4D2E061E089810E94E1
:10044000DD010E94B30060E088810E94DD010E940E
:10045000B30060E089810E94DD01DF91CF910C94AF
:10046000B3000F931F93CF93DF93D82FC8E061E0C1
:1004700080914B020E94DD010E94B3000D2F10E01D
:1004800060E0D0FF61E080914C020E94DD010E949B
:10049000B30060E080914B020E94DD010E94B30036
:1004A00015950795D02FC15011F761E080914B024F
:1004B0000E94DD0160E080914C020E94DD010E94FB
:1004C000B30060E080914B020E94DD010E94B30006
:1004D00080914C020E948601C82F811105C061E005
:1004E00080914C020E94DD010E94B30061E0809186
:1004F0004B020E94DD010E94B30081E0C11101C0E6
:1005000080E0DF91CF911F910F91089561E080917C
:100510004C020E94DD010C94B3000F931F93CF9304
:10052000DF938C010E94860280E40E9431020E94C7
:1005300019020E94860280EC0E943102E8010C5FE1
:100540001F4F89910E943102C017D107D1F70E9435
:1005500019020E94860280914D028F7080580E947D
:100560003102DF91CF911F910F910C9419023FB787
:10057000F8948091BE019091BF01A091C001B0910B
:10058000C10126B5A89B05C02F3F19F00196A11DFA
:10059000B11D3FBFBA2FA92F982F8827BC01CD01CD
:1005A000620F711D811D911D42E0660F771F881F2C
:1005B000991F4A95D1F708952FB7F8946091BA0121
:1005C0007091BB018091BC019091BD012FBF089536
:1005D000CF92DF92EF92FF920F931F93CF93DF930F
:1005E000E091640230916502CE2FC30FDD27DD1F3D
:1005F000DE01E0906602F0906702C0E03BE0CA17BF
:100600001B0634F58701C39F000D111D1124F8014D
:10061000C184D284CD28D1F46B017C012083C582B2
:10062000D682E782F086528741870E94DC02F80179
:1006300061837283838394838C2FDF91CF911F9189
:100640000F91FF90EF90DF90CF900895CF5FD7CFBD
:100650008FEFF3CFCF93DF9387FD23C02091640208
:1006600090916502290F3327331F482F082E000C65
:10067000550B42175307ACF4C0916602D091670244
:100680009BE08902C00DD11D112489859A85892B93
:1006900041F081E088830E94DC0269837A838B8346
:1006A0009C83DF91CF9108958091B8018A3041F405
:1006B000E0915A02F0915B02309711F082E0848B56
:1006C0008091B7010C94DB00089508958091B801E2
:1006D000853068F4833088F4813058F0E0915A0214
:1006E000F0915B02309729F082E0848B02C0893060
:1006F000A8F380916A020C94DB0080916D020E9445
:10070000DB001092B801F5CF20918601260F332728
:10071000331F21323105ECF420910A02FC0190E0F4
:1007200080E0243069F082E00895A0918601219153
:10073000AC014A595E4FA40FB52FB11D2C93019601
:10074000861798F380918601680F6093860180E098
:10075000089581E0089510920A0281E080930902D1
:100760001092E40161E082E10E94AF0161E083E167
:100770000E94AF01E9EBF0E080818E7F8083808171
:100780008D7F808388E48093B80085E48093BC00EB
:100790000895CF93DF9391E0909365018823B9F09A
:1007A000C091B800D091BA008091BC008A7B809340
:1007B000BC0060E082E10E94AF0160E083E10E9442
:1007C000AF010E94AB03D093BA00C093B800DF9191
:1007D000CF9108958F929F92AF92BF92CF92DF9266
:1007E000EF92FF920F931F93CF93DF93D091330239
:1007F000D13208F0D7C0182FC09132020E94B70240
:100800006B017C0180910A0281116BC082E08093B0
:100810000A02109309028FEF8093080210920702D8
:10082000D0930602A2E1B2E0E6EEF1E080E0D81358
:1008300091C01092E5018091E501CC0FC82BC093C7
:10084000E5018091E401813009F088C01092E40153
:100850000E94B7026B017C018091E5018093BB008F
:1008600080910C0290910D02A0910E02B0910F02A6
:10087000892B8A2B8B2BA1F00E94B70200910C02CE
:1008800010910D0220910E0230910F026C197D091A
:100890008E099F09061717072807390708F442C071
:1008A0008091BC0083FDD8CF85EC8093BC000E9472
:1008B000B7026B017C0180910A02823009F450C0BA
:1008C000809108028F3F09F46FC080910802803246
:1008D00009F46CC080910802803309F469C084E097
:1008E00026C080910C0290910D02A0910E02B09151
:1008F0000F02892B8A2B8B2B09F484CF0E94B7021D
:1009000080900C0290900D02A0900E02B0900F0209
:100910006C197D098E099F0986169706A806B906E7
:1009200008F070CF80910B020E94C90385E01092FD
:1009300011021092330210921002DF91CF911F9199
:100940000F91FF90EF90DF90CF90BF90AF909F906E
:100950008F9008959D9191938F5F69CF85EEA5CF7C
:1009600080910C0290910D02A0910E02B0910F02A5
:10097000892B8A2B8B2B09F49ECF0E94B702009102
:100980000C0210910D0220910E0230910F026C1991
:100990007D098E099F09061717072807390708F0F0
:1009A0008ACFC0CF81E0C3CF80E0C1CF82E0BFCF8C
:1009B00083E0BDCF81E08093100288E6809332020D
:1009C000109211021092330281E00E94EA0391E03A
:1009D000811190E0892F08950895E091C3018091DD
:1009E000C201E81730F4F0E0EC53FE4F808190E054
:1009F00008958FEF9FEF08959091C3018091C201F8
:100A00002FEF3FEF981748F4E92FF0E0EC53FE4F3B
:100A1000208130E09F5F9093C301C90108958091C8
:100A2000C2019091C301891B990B0895CF92DF9267
:100A3000EF92FF920F931F93CF93DF937C01CB0133
:100A40008A0120911002222389F0EB016B01C40E70
:100A5000D51ECC15DD0569F06991D701ED91FC91AA
:100A60000190F081E02DC7010995F3CF642F0E941A
:100A70008403C801DF91CF911F910F91FF90EF90F8
:100A8000DF90CF900895CF93DF931F92CDB7DEB75D
:100A90006983209110022223F9F020913302203241
:100AA00058F021E030E0FC013383228390E080E0C5
:100AB0000F90DF91CF91089580911102E82FF0E01F
:100AC000EE5EFD4F998190838F5F8093110280933A
:100AD000330281E090E0ECCF61E0CE0101960E940C
:100AE0008403F7CFCF93C62F91E09093100298E63E
:100AF000909332021092110210923302682F84E315
:100B000092E00E9443056C2F84E392E00E9443052B
:100B100081E0CF910C94EA0390E080E008951F9368
:100B2000CF93DF93D82FC62F142F0E941B01D7FD20
:100B300016C08D2F6AE00E94D61CE82F880FFF0B8D
:100B4000E65FFE4F808180935002E92F990FFF0BE3
:100B5000E65FFE4F80811111806880935102C7FDCE
:100B600014C08C2F6AE00E94D61CE82F880FFF0B60
:100B7000E65FFE4F808180935202E92F990FFF0BB1
:100B8000E65FFE4F808180935302DF91CF911F91EA
:100B90000895382F862F64E60E94CA1C292F323010
:100BA00059F1333021F187E7809350028CE980932B
:100BB00051022A3068F141112BC0822F6AE00E9455
:100BC000CA1CE82FF0E0E65FFE4F8081809352025E
:100BD00080E0411109C0822F6AE00E94CA1CE92FFF
:100BE000F0E0E65FFE4F808180935302089588E72E
:100BF0008093500284EFDBCF8CE78093500280918A
:100C0000B801863019F086E08068D1CF8FE3FCCF41
:100C100080E0DCCF883070F4823078F0815085300D
:100C200028F4982F990F990F890F0895853021F096
:100C30008CE3089581E008958EE10895E82FF0E0B7
:100C4000EE0FFF1FE65AFD4F0190F081E02D309727
:100C500051F08285833038F0853018F0863009F005
:100C6000089581E0848B089580E592E0FC01358150
:100C70000196208132130AC022E084359207B1F731
:100C800090915902809154029817C1F080915002BE
:100C900080935502809151028093560280915202B6
:100CA000809357028091530280935802809154029E
:100CB0008093590280E592E00C948D020895E091B2
:100CC0005A02F0915B02309709F0148AE0915C02BD
:100CD000F0915D02309709F0148AE0915E02F09184
:100CE0005F02309709F0148A08950E94DB0080911A
:100CF0006A020E94DB000C945F060F93FC01808166
:100D0000442381F08F5F80838081681720F0222345
:100D100039F0811105C0002339F04111622F608341
:100D20000F9108958150EFCF4111262F2083F8CFE6
:100D30000F931F93CF93DF9300D000D000D0CDB797
:100D4000DEB78091320181110AC0CE0101960E9466
:100D5000C2008E818093310181E080933201CE0107
:100D600001960E94C2008E81909131019817F1F096
:100D7000CE0101960E94C2008E81809331011092B3
:100D800051010E94DC0260932D0170932E0180932B
:100D90002F019093300126960FB6F894DEBF0FBE58
:100DA000CDBFDF91CF911F910F9108958091510197
:100DB0008111F1CF0E94DC0200912D0110912E01D2
:100DC00020912F0130913001601B710B820B930B2E
:100DD000643F714081059105F0F281E080935101FB
:100DE000DACF1F93CF93DF93EC01862F142F22E3EA
:100DF00030E03A83298328EE33E03C832B832CE2D6
:100E000031E03E832D8391E09F8324E630E03987F3
:100E100028871A8690E19B871C861D861E861F8662
:100E2000188A198A1A8A1B8A1C8A688362E00E94BF
:100E3000DD018B858B7F8B87112311F082E08F83FF
:100E4000DF91CF911F910895FC01838590E002C04E
:100E5000959587956A95E2F781700895E82FF0E0FF
:100E6000EE0FFF1FE65AFD4F80819181009719F028
:100E700060E00C94240780E008950F931F93CF93B4
:100E8000DF93362F2AE0622F0E94CA1C8F70E82F52
:100E9000F0E0E65FFE4FD081E92FF0E0E65FFE4F25
:100EA000C081832F0E94CA1C8F70E82FF0E0E65F9C
:100EB000FE4F0081E92FF0E0E65FFE4F1081809148
:100EC000B8018A30B9F480915101811113C081E0D9
:100ED0000E942E0781110EC082E00E942E07811110
:100EE00009C0809157018430C9F090F48230B1F08C
:100EF0008330B9F0D0935002C058C0935102009390
:100F0000520210935302DF91CF911F910F910895D8
:100F1000853039F0863071F710E000E0C0E0D0E0B5
:100F2000E9CF10E000E0E6CFCF93DF93EC018B85B3
:100F30008F738B871C8A60E0CE010E9424078A870A
:100F4000DF91CF910895E82FF0E0EE0FFF1FE65AF2
:100F5000FD4F80819181009711F00C9494070895C2
:100F6000CF92DF92EF92FF920F931F93CF93DF9375
:100F7000EC011B85012F077F0B876623A1F0690118
:100F80007A01802F81608B8766E0CE010E94240762
:100F9000811116C083E08A8701640B87C88AD98AC9
:100FA000EA8AFB8A04C0167F1B8782E08A87DF916A
:100FB000CF911F910F91FF90EF90DF90CF90089508
:100FC00088899989AA89BB89C81AD90AEA0AFB0AB9
:100FD0008D819E81B0E0A0E08C159D05AE05BF051A
:100FE00030F384E08A87177B11601B87E0CF8F92F4
:100FF0009F92AF92BF92CF92DF92EF92FF921F9398
:10100000CF93DF93E82FF0E0EE0FFF1FE65AFD4F7E
:10101000C081D18180E0209711F10E94DC026B0138
:101020007C01A980BA80A114B10429F163E0CE014A
:101030000E9424078823F9F08C859D85AE85BF85A5
:10104000B701A601481B590B6A0B7B0BC501B0E029
:10105000A0E0481759076A077B0768F48A85DF9183
:10106000CF911F91FF90EF90DF90CF90BF90AF9006
:101070009F908F90089588810E9486015C0161E0B5
:10108000CE010E94240711E0882321F0AB2821F42F
:1010900010E002C0AB28E1F762E0CE010E94240715
:1010A000882311F081E0182760E0CE010E94240718
:1010B000811384C063E0CE010E942407811126C001
:1010C000111139C01A8688899989AA89BB89C81AD9
:1010D000D90AEA0AFB0A8D819E81B0E0A0E08C1556
:1010E0009D05AE05BF0508F0B9CF64E0CE010E94B2
:1010F0002407882341F066E0CE010E94240788235C
:1011000011F085E08A878B858F738B878A85833082
:1011100008F4A4CF853018F0863009F09FCF1091E5
:101120006A02812F0E94F600882309F497CF812F4D
:101130000E942A0393CF8C859D85AE85BF8546018D
:101140005701881A990AAA0ABB0A67E0CE010E94D1
:1011500024074B815C8170E060E084169506A6064A
:10116000B70610F4882371F09F8181110EC0923070
:1011700021F4CC86DD86EE86FF868B8580688B87A2
:1011800086E01AC081E08A87C1CF913081F0923029
:10119000B9F788859985B0E0A0E088169906AA0677
:1011A000BB0648F0CC86DD86EE86FF86E9CF9A87BF
:1011B0008B858F7BAACF81E08A87FACFA980BA80FE
:1011C000A114B10461F163E0CE010E9424078111F2
:1011D00013C0CC86DD86EE86FF868B8588608B8784
:1011E0008A85863021F48F81882309F498CF60E0C6
:1011F000CE010E942407C7CF8C859D85AE85BF8513
:10120000B701A601481B590B6A0B7B0BC501B0E067
:10121000A0E0481759076A077B0708F477CFCC8608
:10122000DD86EE86FF86A7019601612FCE010E9422
:10123000B0076CCFCF92DF92EF92FF920F931F9384
:1012400091E09093100298E690933202109211026E
:1012500010923302682F84E392E00E94430581E0FC
:101260000E94EA030E94B7026B017C0180910A028E
:10127000811163C081E080930A02809309029FEF8D
:101280009093080210920702109206028093E501E3
:101290008091E501806D8093E5018091E4018130CA
:1012A00009F080C01092E4010E94B7026B017C013A
:1012B0008091E5018093BB0080910C0290910D021A
:1012C000A0910E02B0910F02892B8A2B8B2BA1F0DB
:1012D0000E94B70200910C0210910D0220910E02A3
:1012E00030910F026C197D098E099F0906171707A7
:1012F0002807390708F442C08091BC0083FDD8CF8D
:1013000085EC8093BC000E94B7026B017C01809148
:101310000A02813009F448C080910702811166C039
:1013200080910702A6EEB1E0E4ECF1E090E09817BE
:1013300051F12D9121939F5FFACF80910C029091F2
:101340000D02A0910E02B0910F02892B8A2B8B2BDC
:1013500009F48CCF0E94B70200910C0210910D028B
:1013600020910E0230910F026C197D098E099F09A0
:10137000061717072807390708F078CF80910B0266
:101380000E94C90380E01092C3018093C20184E3EC
:1013900092E00E94FC041F910F91FF90EF90DF906C
:1013A000CF90089585EEADCF80910C0290910D0203
:1013B000A0910E02B0910F02892B8A2B8B2B09F47E
:1013C000A6CF0E94B70200910C0210910D0220914D
:1013D0000E0230910F026C197D098E099F090617C4
:1013E00017072807390708F092CFC8CF81E09ACFB6
:1013F0000E94DA04882341F082E00E941A09682FD3
:101400006F7B82E00C94720508951F93CF93DF9356
:10141000C82F162F60E080E00E947205DAE0812F6D
:101420006D2F0E94CA1C8295807F682F690F81E012
:101430000E94720582E00E941A0986FF23C0CD3007
:10144000C0F084EF8C0F6D2F0E94CA1C682F62952C
:10145000607F690F606682E00E9472058FE00E94E3
:101460001A09682F6F778FE0DF91CF911F910C944D
:1014700072058C2F6D2F0E94CA1C8295807F682F69
:10148000690FE9CF8C2F6D2F0E94CA1C682F6295BF
:10149000607F690F6F7BDFCF0F931F93CF93DF9335
:1014A000C0916D028C2F0E94F60081110EC08091B8
:1014B000B8018350823030F483E080934D0184E0A2
:1014C00080934C018C2F0E942A030E94DC02009121
:1014D00048011091490120914A0130914B01601B54
:1014E000710B820B930B683E73408105910508F4E4
:1014F00078C00E94DC026093480170934901809398
:101500004A0190934B010E941B0180914D01833051
:10151000C9F50E94DA04C1E88823C1F081E10E9484
:101520001A09C82F82E10E941A09DC2FC82F86E011
:10153000D595C7958A95E1F7CE0183709927D69501
:10154000C795D695C795039709F421960C2E000CE4
:10155000DD0B0E941B0183E680935302D7FF06C078
:10156000D195C195D10980E480935102C436D1054B
:10157000C4F080E480935002809351028093520221
:101580008093530280914D018F5F80934D01909124
:101590004C01981730F5DF91CF911F910F910C946A
:1015A0006603CA30D1058CF080915102803411F469
:1015B00080935002CE016AE070E00E94F81CFB01AB
:1015C000E65FFE4F808180935102CE016AE070E0B9
:1015D0000E94F81CFC01E65FFE4F8081809352025E
:1015E000D1CFDF91CF911F910F9108954F925F92CC
:1015F0006F927F928F929F92AF92BF92CF92DF9223
:10160000EF92FF92CF93DF93CDB7DEB729970FB656
:10161000F894DEBF0FBECDBF4091B5014983842F42
:101620000E94F600811182C089810E942A031092D3
:101630006401109263018091640190E00896880F24
:10164000991F880F991FFC01E859FF4F459055904D
:1016500065907490FC01E85BFF4F85919591A59191
:10166000B49189839A83AB83BC83809101018730D5
:1016700009F478C08F3F09F4F4C0D090640144E0CD
:10168000D49EF0011124E857FF4F45915591659183
:1016900074918091B501898387FD2CC0809164028B
:1016A00090916502890F9927991FA9812A2F0A2EE7
:1016B000000C330B28173907ECF4E0906602F09029
:1016C0006702BBE0AB02E00CF11C1124F70145837B
:1016D00056836783708781859285892B59F081E0D5
:1016E00080830E94DC02D70111966D937D938D93C8
:1016F0009C93149781E08D0D883008F03BC2809355
:10170000640129960FB6F894DEBF0FBECDBFDF91FE
:10171000CF91FF90EF90DF90CF90BF90AF909F90D0
:101720008F907F906F905F904F90089580914402CA
:10173000823009F480CF898129960FB6F894DEBFF4
:101740000FBECDBFDF91CF91FF90EF90DF90CF9094
:10175000BF90AF909F908F907F906F905F904F90D1
:101760000C94DB00E8EAF0E09491998797FD85CF2F
:1017700061E087E00E94DD01B985BB2321F0E985A6
:10178000E23009F087C189809A80AB80BC80AA24AE
:10179000BB2460E072E18AE790E0A50194010E9419
:1017A0002E1D2D833E834F83588769017A01F1E016
:1017B000CF1AD108E108F1084FEFC416D104E104B3
:1017C000F10409F00CF43BC160E472E48FE090E0B6
:1017D000A50194010E942E1D69017A0181E0C81AB9
:1017E000D108E108F1089985923009F0ABC082E098
:1017F000AFEFCA16D104E104F10409F00CF4F1C012
:1018000060E970ED83E090E0A50194010E942E1D37
:1018100069017A01B1E0CB1AD108E108F10883E04F
:10182000EFEFCE16D104E104F10409F00CF4D9C0B5
:1018300068E478EE81E090E0A50194010E942E1DFD
:1018400069017A01F1E0CF1AD108E108F1084FEF00
:10185000C416D104E104F10411F00CF0C9C084E015
:10186000C0C087E080930101E8EAF0E0A491A98775
:10187000AF3F09F402CFA13029F158F0A23009F4AA
:101880003FC0898587FDF9CE61E087E00E94DD01D8
:1018900076CF14BC15BC84B5826084BD85B58160EB
:1018A00085BDEEECF0E0E491F0E0EE0FFF1FED54AB
:1018B000FF4F85919491E2EEF0E0E491E0935A01BC
:1018C000198656CF1092800010928100809181007D
:1018D0008860809381008091810081608093810085
:1018E000EEECF0E0E491F0E0EE0FFF1FED54FF4F5F
:1018F00085919491E2EEF0E0E491E093590138CFC4
:101900001092B0001092B1008091B000826080937C
:10191000B0008091B10081608093B100EEECF0E006
:10192000E491F0E0EE0FFF1FED54FF4F859194918D
:101930009093AA018093A901E2EEF0E0E491E09394
:10194000AB0116CFFFEFCF16D104E104F10409F08B
:101950000CF49EC068E478EE81E090E0A50194016B
:101960000E942E1D69017A0181E0C81AD108E108A0
:10197000F1089985992309F44DC19FEFC916D10447
:10198000E104F10409F00CF46ACF62E17AE780E047
:1019900090E0A50194010E942E1D69017A01E1E009
:1019A000CE1AD108E108F108F985FF2309F417C11F
:1019B00086E0EFEFCE16D104E104F10491F088F057
:1019C000CD80DE80EF80F8848AE0F594E794D794A8
:1019D000C7948A95D1F7B1E0CB1AD108E108F10894
:1019E00087E09091B100987F892B8093B1002FC040
:1019F00064E274EF80E090E0A50194010E942E1D46
:101A000069017A01A1E0CA1AD108E108F10885E06C
:101A1000BFEFCB16D104E104F10419F310F362E136
:101A20007AE780E090E0A50194010E942E1D6901F3
:101A30007A01A1E0CA1AD108E108F108B9CF81E022
:101A400049854111CECF95B5987F892B85BD2FEF64
:101A50003FEFA901411451046104710409F048C029
:101A6000E985E13009F464C0E23009F473C0E111A2
:101A700004CEC7BC20935F013093600140936101A5
:101A80005093620180916E00826080936E00F5CD6C
:101A900082E0D6CF89809A80AB80BC80AA24BB2408
:101AA00060E072E18AE790E0A50194010E942E1D9A
:101AB00069017A0181E0C81AD108E108F108C1146E
:101AC000D10491E0E906F10414F591E0B985B13053
:101AD00009F0BDCF80918100887F892B80938100A0
:101AE0002FEF3FEFA901411451046104710401F18A
:101AF000A981BA81AA0FBB1FA30192010E94631D95
:101B000028EE33E040E050E00E940C1DA9CF68E4CD
:101B100078EE81E090E0A50194010E942E1D6901FC
:101B20007A01A1E0CA1AD108E108F10893E0CECF0A
:101B3000D0928900C092880020935B0130935C01B1
:101B400040935D0150935E0180916F0082608093AD
:101B50006F0093CDC092B3002093AC013093AD01E0
:101B60004093AE015093AF018091700082608093EA
:101B7000700083CD10926401809163018F5F8C337C
:101B800018F480936301BDCD1092630189810E9496
:101B9000DB00B981B7FD1FC080916402909165029E
:101BA000890F9927991F2B2F0B2E000C330B281709
:101BB00039078CF4E0916602F09167024BE0B402C1
:101BC000E00DF11D112482E390E0A0E0B0E08583F8
:101BD0009683A783B08781E08093440292CD84E00E
:101BE000AFEFCA16D104E104F10409F008F42BCFD9
:101BF000CD80DE80EF80F8849AE0F594E794D79466
:101C0000C7949A95D1F791E0C91AD108E108F10873
:101C100085E019CF8FEFC816D104E104F10411F06B
:101C20000CF0B3CE83E00FCF0F931F93CF93DF93CE
:101C300000D0CDB7DEB70091420210914302080FE9
:101C4000111DC8010E94B41C8983C80101960E941D
:101C5000B41C8A8389819A810F900F90DF91CF9174
:101C60001F910F91089581E00C94140E83E00C9461
:101C7000140E0F931F93CF93DF938C010E94330EAA
:101C8000EC010E94360EAC01F80180819181803A0E
:101C9000F5E09F0728F0805A9540F80191838083F2
:101CA000C417D50751F0F80120813181C417D50739
:101CB00030F481E02C173D0730F480E007C081E06C
:101CC0002C173D0718F424173507B8F7DF91CF918B
:101CD0001F910F910895AF92BF92CF92DF92EF9232
:101CE000FF920F931F93CF93DF9300D0CDB7DEB752
:101CF0005C010E94330E8C010E94360EAC01F5018E
:101D0000238130E0A0E1BEE00E944D1D6B017C010B
:101D1000248130E0ACE3B0E00E944D1DC60ED71E1A
:101D2000E81EF91E8581C80ED11CE11CF11C40176C
:101D3000510738F4F0E8CF0EF1E5DF1EF1E0EF1EB9
:101D4000F11C1A83098385E00E94140E5C0149810D
:101D50005A81FA01EA0DFB1D9A01ACE3B0E00E9442
:101D60004D1D6C157D058E059F0518F15A8349831D
:101D7000CE0101960E94390E811102C01A83098397
:101D800089819A81803A25E0920710F0805A954027
:101D900090934602809345020F900F90DF91CF9170
:101DA0001F910F91FF90EF90DF90CF90BF90AF9079
:101DB0000895AF01CECF0F931F93CF93DF9300D041
:101DC00000D000D0CDB7DEB780914402823079F4E4
:101DD000EAE5F2E080E0A191B191109729F01A961E
:101DE0009C919350923028F18F5F8330A1F78091BE
:101DF0005601882351F0CE0101960E94C200CE0107
:101E000001960E946B0E109256018091B8018330AA
:101E1000B0F4E0915A02F0915B028130E8F0309723
:101E200081F084898150823060F481E08093560192
:101E300008C091E0909344020E94A30702C0893039
:101E4000E1F126960FB6F894DEBF0FBECDBFDF914D
:101E5000CF911F910F910895309729F0828584309A
:101E6000F9F0853021F1E0915C02F0915D0230974C
:101E700041F38285863029F780914402882309F353
:101E80000E94330E8C010E94360E08171907C9F202
:101E900089E08093B80188E08093570181E0CCCF3E
:101EA0008AE08093B80180E00E94A307DCCF809194
:101EB00044028823C1F289E0F4CFE0915A02F09104
:101EC0005B02309709F4BDCF8285853009F0B9CF28
:101ED0008091B6010E94DB001092B80180E0ACCF87
:101EE000CF92DF92EF92FF920F931F93CF93DF93E6
:101EF000CDB7DEB728970FB6F894DEBF0FBECDBFC3
:101F0000CE0101960E94C2008C81ED80F12C2CE361
:101F1000829FE00CF11C1124F886EF82809144022C
:101F2000823009F06DC01091580181E0810F82303C
:101F300008F063C08093580160E0809140020E94E5
:101F4000AF01612F809141020E94AF018091440254
:101F50008130C1F500914502109146022CE330E03A
:101F6000D7010E945C1D2E816B017C01C20ED11C29
:101F7000E11CF11C9801ACE3B0E00E944D1DC616B7
:101F8000D706E806F906F1F482E08093440285E082
:101F90000E94140E800F911F803A25E0920710F0E6
:101FA000805A9540909346028093450285E492E0E2
:101FB0000E94390E811106C00E94330E9093460292
:101FC0008093450280914402823041F48091B501B2
:101FD0000E94F600811102C00E94F60A28960FB6F0
:101FE000F894DEBF0FBECDBFDF91CF911F910F914F
:101FF000FF90EF90DF90CF900895109258019CCF02
:1020000010E0882309F498CFCE0107960E94390E7C
:1020100010E061E0882309F490CF11E08DCFFF92AA
:102020000F931F93CF93DF930E94330EEC010E9416
:10203000360EFF24F394C817D90711F084E0F82E68
:102040001091B601812F0E94F600811111C0812FDD
:102050000E942A0310925501109254018091570159
:10206000883031F40E94330E9093530180935201D3
:10207000D09155018091570101E00D0F811144C0AD
:10208000C0915401C13001F168F0C23009F1809172
:1020900045029091460227E0C33039F022E090E0FB
:1020A00080E003C00E94330E22E0D830B0F4822FCB
:1020B0000E9433010431D8F400935501DF91CF9190
:1020C0001F910F91FF9008950E94360E24E0EDCFEE
:1020D00085E00E94140E26E0E8CF6CE370E00E94D9
:1020E000E41C962F682F892F0E943D07E3CF1092A2
:1020F0005501CF5FC0935401CF1500F3812F0E948B
:10210000DB001092B801DACFD450DC3028F188E03F
:102110000E943301043180F21092550180915401E4
:102120008F5F8093540185E00E94140E209152012C
:1021300030915301820F931F90935301809352016A
:1021400082E591E00E94390E8111B8CF812F0E9463
:10215000DB0010925701D5CF80915201909153012D
:102160006CE370E00E94E41C962F682F892F0E9478
:102170003D07D0CF0C94B41C0F931F93CF93809145
:102180006F020E94F600882331F08091B8018650DA
:10219000823008F442C0C091540280913F01811105
:1021A00009C00E94220190933E0180933D0181E08D
:1021B00080933F0100913D0110913E01000F111FDE
:1021C0000E942201800F911F63E070E00E94E41CD6
:1021D0008B0170933E0160933D018FE590E00E947A
:1021E000BA102091020130910301482F429FC00193
:1021F000439F900D11240817190798F482E690E088
:102200000E94BA10C82F8C2FC83008F087E0809346
:102210005402C770C860C0934D02CF911F910F91B7
:10222000089536952795280F391F2017310758F73D
:1022300083E690E0E5CFDF92EF92FF920F931F933A
:10224000CF93DF93CDB7DEB72C970FB6F894DEBFF0
:102250000FBECDBF0E94DA04882309F4A9C080E034
:102260000E941A09E82E81E00E941A09F82E82E0E5
:102270000E941A09082F84E00E941A09182F85E08D
:102280000E941A09D82E86E00E941A093E2D329526
:1022900037709AE02E2D2F70399F200D11244F2D6D
:1022A00042954F703F2D3F70499F300D1124502FA4
:1022B00052955F70402F4F70599F400D1124512F40
:1022C00052955F70E12FEF70599FE00D11245D2D45
:1022D00052955770FD2DFF70599FF00D1124582F06
:1022E00052955F708F70599F800D112490E064E6C5
:1022F00070E00E94E41C9FEF9F0F9C3008F0F1E01B
:102300009FEF9E0F9F3108F0E1E0483108F040E078
:102310003C3308F030E02C3308F020E0809370026A
:10232000F0937102E093720240937302309374024F
:10233000209375028091B80181112CC0CE010196C5
:102340000E94C2008E81811110922C0180E690E0E3
:102350000E94BA100E940A06182F8823B9F1CE01F4
:1023600007960E94C2008B85612F0E94CA1C9111A2
:102370002DC0CE0101960E94C2008E81811126C01F
:1023800080912C01811122C081E080932C0184E096
:102390008093B8012C960FB6F894DEBF0FBECDBF68
:1023A000DF91CF911F910F91FF90EF90DF900895F3
:1023B0001092700281E080937102809372021092F9
:1023C00073021092740210927502B4CF0091510101
:1023D000CE0107960E94C2001B85CE0101960E9485
:1023E000C200402F612F8C810E948F05D3CFFF92B6
:1023F0000F931F93CF93DF9300D000D000D0CDB7C1
:10240000DEB710916B02812F0E94F600811130C05F
:10241000812F0E942A0380916A020E942A030E944F
:102420005F068091B8018150823070F4CE01019630
:102430000E94C2008C8180933B01CE0101960E94D4
:10244000C2008D8180933A0110923C010E941B01D1
:1024500080E592E00E948D0226960FB6F894DEBFCA
:102460000FBECDBFDF91CF911F910F91FF900895C7
:1024700080913C01811113C08091B801815082305C
:1024800070F4CE0101960E94C2008C8180933B01C2
:10249000CE0101960E94C2008D8180933A01E091A5
:1024A0005A02F0915B023097B1F18489882399F147
:1024B00080913C018823B9F08091B801815082302D
:1024C00080F40E94F80900913A0110913B010E94AA
:1024D000DA04882321F0602F812F0E94050A0E94D0
:1024E0001B1110923C01E0915A02F0915B02809125
:1024F0006B02309741F09489148A913021F49091C5
:10250000B801913019F01092B80103C092E0909395
:10251000B8010E947506E0915C02F0915D0230976F
:1025200009F444C08489813009F040C08489148A48
:1025300041E0813009F040E08091B801813009F438
:1025400047C0823009F44CC081E080933C01109177
:10255000B801112309F480CF80916B020E94F6002C
:10256000882309F479CFF0903A0100913B018091E2
:102570005101811110C081E00E942E0781110BC012
:1025800082E00E942E07811106C0113079F11230CD
:1025900011F4FF24FA940E941B0141E0133008F06B
:1025A00040E06F2D802F0E948F0556CFA0915E02D4
:1025B000B0915F02109759F254968C9154975496AB
:1025C0001C92813021F6309709F0B0CF80E0B0CF77
:1025D00001E020E067E18BE391E00E947D06B4CF4B
:1025E00001E020E06BE38AE391E0F7CF0FEFD3CF78
:1025F00085ED8093BC0080910C0290910D02A0911A
:102600000E02B0910F020796A11DB11D23E0B695F1
:10261000A795979587952A95D1F72091BC0024FD21
:1026200003C010920A02089540910C0250910D02CD
:1026300060910E0270910F02452B462B472B69F3D8
:102640000097A105B10541F02AE22A95F1F700C0F3
:102650000197A109B109E1CF80910B020C94C90344
:102660001F93CF93DF93EC01162F0E94B41C181711
:1026700039F0612FCE01DF91CF911F910C94BC1CDA
:10268000DF91CF911F9108950F93CF93DF93D09156
:102690006F028D2F0E94F600C091B80181112AC0EF
:1026A0008D2F0E942A0380916A020E942A030E94B1
:1026B0005F06C630E1F068F48FE590E0C53079F050
:1026C0000E941B0180E592E0DF91CF910F910C9465
:1026D0008D02C73049F080E690E0C83089F70E944B
:1026E000BA1080934701ECCF83E690E0F8CF82E602
:1026F00090E0F5CFE0915A02F0915B02309781F0C3
:10270000D489DD2369F0148AC63009F463C008F067
:1027100049C0609147018FE590E0C53009F44BC096
:10272000E0915C02F0915D02309709F463C0848906
:10273000813009F05FC08489148A41E0813009F05A
:1027400040E08091B801883008F068C0863008F019
:1027500070C000E021E069E0853009F465C0D091E7
:10276000B801DD23D9F0C0915101C11165C081E0EC
:102770000E942E07811105C082E00E942E07C1E051
:10278000C827D83008F05AC0D63008F062C04C2FA5
:102790006091470183E0D53009F46AC0DF91CF91A1
:1027A0000F910895C73051F06091470180E690E0A5
:1027B000C83009F0B5CF0E94301309C060914701BD
:1027C00083E690E00E94301385E0D13061F01092F2
:1027D000B8010BC06091470182E690E00E9430137F
:1027E000D130A9F787E08093B80180916F020E94F1
:1027F000750696CFA0915E02B0915F02109709F422
:10280000AECF54968C91549754961C92813009F017
:10281000A6CF309709F08FCF80E08FCF00E020E087
:10282000883009F09CCF67E087E491E00E947D0644
:1028300096CF00E021E0F7CFC0E0A3CFD83009F079
:10284000ADCF809147010E940A064C2F682F81E08E
:102850000FC060914701862F683008F087E08093B1
:102860005402862F8770886080934D024C2F82E03F
:10287000DF91CF910F910C94C905FF920F931F9395
:10288000CF93DF93EC018B01FB01F0800E94B41C1D
:10289000F81621F06F2DCE010E94BC1CF801F180CA
:1028A0002196CE010E94B41CF81621F06F2DCE01A6
:1028B0000E94BC1CC801DF91CF911F910F91FF9026
:1028C00008950F931F93CF93DF93CDB7DEB72C9767
:1028D0000FB6F894DEBF0FBECDBF1091B401812FAB
:1028E0000E94F600811116C0812F0E942A03809158
:1028F000B7010E942A0380915701823010F0109294
:102900000001843028F5823068F5813009F447C031
:1029100010924E0190910001983008F04DC08091C6
:102920005701282F2B7F223019F0843009F044C042
:102930009F5F909300010E9433012C960FB6F8948C
:10294000DEBF0FBECDBFDF91CF911F910F910895D4
:102950008630C8F08630E1F685E00E94140E809340
:102960005001D6CF0E94330E0CE310E0B8010E9454
:10297000E41C609350010E94330EB8010E94E41CD5
:1029800080934F01C5CF0E94360E0CE310E0B801D2
:102990000E94E41C609350010E94360EEECF80919D
:1029A0004202909143020E94BA1091E0811101C04D
:1029B00090E090935001ACCFE0915A02F0915B020D
:1029C0003097E1F184898823C9F18091B7010E9491
:1029D0002A0380914E018823C9F020914F018091F4
:1029E000500190915701943008F053C0923008F094
:1029F00064C0913009F485C0CE0101960E94C200E6
:102A0000CE0101960E946B0E10924E01E0915A0287
:102A1000F0915B02309791F08489813009F0ABC06E
:102A20001092000180915701863009F078C0E09142
:102A30005A02F0915B02309709F09BC0E0915C0272
:102A4000F0915D02309709F4A8C08489813009F0C3
:102A5000A4C08091B7010E942A03E0915C02F0912A
:102A60005D0220E0309711F02489148A8091500192
:102A700090915701933009F4CDC008F0A7C0913070
:102A800009F4DDC0923009F4B2C081E080934E01B8
:102A90008FC0963028F1963009F0AECF853B08F014
:102AA00084EB90E098878F8380914202909143025B
:102AB000BE01695F7F4F059610C030E09CE3899F9F
:102AC000200D311D11243C872B878091420290916B
:102AD0004302BE01655F7F4F01960E943D148CCF7B
:102AE00030E09CE3899F200D311D11243A8729870E
:102AF0008091420290914302BE01675F7F4F03962F
:102B0000ECCF11E0811101C010E0612F80914202F1
:102B1000909143020E943013109344026DCF813094
:102B2000D9F480914402882309F481CF8091570120
:102B3000873010F08830D9F48F5F809357018091EF
:102B4000B4010E94DB00E0915A02F0915B023097E1
:102B500009F4F3CE148AF1CE853041F70E94330E8A
:102B60008C010E94360E0817190701F760CF80E02C
:102B7000E4CF82E0848B8489148A823009F05ECFAE
:102B80008091B7010E94DB008091B4010E94DB00BC
:102B90001092B80110925701D0CEE0915E02F091F0
:102BA0005F02309729F08489148A813009F451CF6B
:102BB0001091500180915701813009F44DC0863049
:102BC00009F46AC060914F01812F6BC0953011F1FB
:102BD00070F0963009F059CF2130B9F5865F8093B7
:102BE0005001809150018A3090F58AE00EC021306A
:102BF00079F48F5F8093500180915001883108F4FF
:102C000044CF80E0213009F087E1809350013DCF2F
:102C10008150F0CF80914F01213079F48F5F809304
:102C20004F0180914F018C3308F42FCF80E0213089
:102C300009F08BE380934F0128CF8150F0CF8F5F55
:102C4000823018F31092500120CF8A50C8CF853BB4
:102C500008F41BCF84EBD9CF87E78093500288EB31
:102C600080935102109252028091510181110DC046
:102C700081E00E942E07811108C082E00E942E0789
:102C8000811103C01092530258CE8CE5111101C07E
:102C900088E08093530251CE812F6CE30E94CA1CBE
:102CA000692F0E943D0749CE8091B801893019F003
:102CB0008A3049F008958091B6010E94F600811192
:102CC00011C00C940F108091B4010E94F600811184
:102CD00009C080915701811103C081E080935701A1
:102CE0000C94611408951F920F920FB60F92112445
:102CF0002F933F938F939F93AF93BF938091BA018C
:102D00009091BB01A091BC01B091BD013091B9017E
:102D100023E0230F2D3758F50196A11DB11D2093F7
:102D2000B9018093BA019093BB01A093BC01B09309
:102D3000BD018091BE019091BF01A091C001B091F1
:102D4000C1010196A11DB11D8093BE019093BF01E9
:102D5000A093C001B093C101BF91AF919F918F919A
:102D60003F912F910F900FBE0F901F90189526E85E
:102D7000230F0296A11DB11DD2CF1F920F920FB645
:102D80000F9211242F933F934F935F936F937F93F1
:102D90008F939F93AF93BF93EF93FF938091AC0179
:102DA0009091AD01A091AE01B091AF01892B8A2B1A
:102DB0008B2BD1F19091AB01E091A901F091AA0187
:102DC0008081892780838091AC019091AD01A09191
:102DD000AE01B091AF01181619061A061B069CF435
:102DE0008091AC019091AD01A091AE01B091AF0185
:102DF0000197A109B1098093AC019093AD01A09313
:102E0000AE01B093AF01FF91EF91BF91AF919F9150
:102E10008F917F916F915F914F913F912F910F9083
:102E20000FBE0F901F90189580910101E8EAF0E025
:102E3000E4919FEF90930101E13051F030F0E230E6
:102E400069F060E00E94AF01DECF10926E00F9CF12
:102E500090916F009D7F90936F00F3CF90917000E1
:102E60009D7F9093700091E09093B0009091B1009D
:102E7000987F94609093B1001092B300E2CF1F92BC
:102E80000F920FB60F9211242F933F934F935F939E
:102E90006F937F938F939F93AF93BF93EF93FF9322
:102EA0008091B900887F803609F44AC0F0F58832F5
:102EB00009F4A7C018F5803109F49BC0B8F4882341
:102EC00009F4F9C0883009F494C0FF91EF91BF91E3
:102ED000AF919F918F917F916F915F914F913F91B2
:102EE0002F910F900FBE0F901F901895883109F405
:102EF00088C0803251F78093080214C0803409F4EE
:102F00009DC040F48033B9F38833F9F6809308020A
:102F100085ECB0C0803509F485C0883509F496C0C9
:102F2000883499F60E94F812D0CF883909F48CC001
:102F300038F5883729F050F4883611F0803729F6B3
:102F400083E080930A021092A80157C0883809F4E0
:102F50007BC0803919F0803809F0B7CF8091A80183
:102F6000803208F071C0E091A80181E08E0F80935B
:102F7000A8018091BB00F0E0E857FE4F80833DC080
:102F8000803B39F0E0F4803A09F479C0883A09F0DE
:102F90009CCF84E080930A021092870110928601F0
:102FA000E091B201F091B301099580918601811100
:102FB0000FC081E0809386011092660109C0803CB9
:102FC00009F4A6CF883C09F4A3CF883B09F07DCF54
:102FD000E091870181E08E0F80938701F0E0EA594C
:102FE000FE4F80818093BB00909187018091860184
:102FF00029C08091E5018093BB0085EC8093BC00E3
:1030000064CF9091070280910602981758F5E091DD
:10301000070281E08E0F80930702F0E0EA51FE4F35
:103020008081E9CFE091070281E08E0F8093070253
:103030008091BB00F0E0EA51FE4F8083909107023F
:10304000809106029817C8F285E8D8CFE091070270
:1030500081E08E0F809307028091BB00F0E0EA517F
:10306000FE4F80838091090281115CCF81E08093C3
:10307000E40184EA8093BC0010920A0226CF85EC1A
:103080008093BC0010920A028091A801803230F433
:10309000E091A801F0E0E857FE4F10826091A8018E
:1030A00070E0E091B001F091B10188E891E00995FC
:1030B0001092A8010ACF1092080234CFCF93DF9369
:1030C00000D000D000D0CDB7DEB7109237021092FA
:1030D000360288EE93E0A0E0B0E08093380290934F
:1030E0003902A0933A02B0933B028EE191E09093B3
:1030F00035028093340280E1809375028CE18093E5
:10310000740286E08093730220E081E697E9E3E9A8
:10311000FEEF322F337041E050E011F050E040E01C
:1031200061E0620FDA01A359BE4F8A179B0738F09E
:103130009F01241B350B820F931F262FEACF20936C
:10314000700221E0422F4150550BFA01ED5FFE4F16
:10315000E491311103C0223009F4EF5FF0E041E067
:10316000420F8E179F0720F08E1B9F0B242FEACF54
:10317000209371028F5F809372021092640210920A
:10318000650210926702109266028AE0EAE5F2E0B8
:10319000DF011D928A95E9F785E080934B0286E076
:1031A00080934C0284E690E090934F0280934E020D
:1031B00060E085E00E94DD0160E080914C020E94A9
:1031C000DD0160E080914B020E94AF0160E08091E0
:1031D0004C020E94AF0181E080935402109255028C
:1031E00010925602109257021092580210925902F1
:1031F0000E941B011092470210924802109249024D
:1032000010924A0282E08093400261E00E94DD0158
:1032100083E08093410261E00E94DD0182E390E05F
:1032200090934302809342020E94BA10823028F0A9
:1032300060E082E390E00E94301381E00E94140E6F
:10324000803A954070F080EE91E09E838D8380916E
:10325000420290914302BE016B5F7F4F01960E9434
:103260003D1483E00E94140E803A954070F08DEF7B
:1032700093E09C838B838091420290914302BE0134
:103280006D5F7F4F03960E943D1485E00E94140EEF
:10329000853B9105F8F08CE390E09A8389838091D7
:1032A000420290914302BE016F5F7F4F05960E94DC
:1032B0003D1480914202909143020E94BA10809383
:1032C000440226960FB6F894DEBF0FBECDBFDF9145
:1032D000CF91089585E00E94140E0A97E0F2E9CF9D
:1032E000CF93DF93CDB7DEB72A970FB6F894DEBF42
:1032F0000FBECDBF789484B5826084BD84B58160F3
:1033000084BD85B5826085BD85B5816085BD8091B0
:103310006E00816080936E00109281008091810028
:103320008260809381008091810081608093810020
:10333000809180008160809380008091B1008460E2
:103340008093B1008091B00081608093B000809143
:103350007A00846080937A0080917A008260809302
:103360007A0080917A00816080937A0080917A005F
:10337000806880937A001092C10087E08093650294
:1033800085E190E00E94901D8C0140E06AE00E947F
:10339000F10610935B0200935A0285E190E00E94CF
:1033A000901D8C0141E068E00E94F10610935D02DF
:1033B00000935C0285E190E00E94901D8C0141E049
:1033C00069E00E94F10610935F0200935E0285E1BE
:1033D00090E00E94901D8C0141E06FEF0E94F10689
:1033E000109361020093600285E190E00E94901DBD
:1033F0008C0141E06FEF0E94F1061093630200938D
:10340000620280E690E00E94BA10883028F061E005
:1034100080E690E00E9430138FE590E00E94BA10A1
:103420008150893028F063E08FE590E00E943013EE
:103430002AE081E090E0880F991F2150E1F76AE0CF
:1034400070E00E94E41C709303016093020183E624
:1034500090E00E94BA109FEF980F973008F087E035
:10346000682F83E690E00E9430138FE590E00E9481
:10347000BA108150893028F063E08FE590E00E9417
:10348000301382E690E00E94BA109FEF980F9730B9
:1034900008F081E0682F82E690E00E9430131092DD
:1034A000C3011092C20110921102109233020E94C5
:1034B000AB0384E693E09093B3018093B20185E679
:1034C00093E09093B1018093B0010E94DA048111DE
:1034D0001FC00E94F8090E94DA04882321F060E0EE
:1034E00080E00E94050A0E94DA04882341F061E02E
:1034F00084E00E94720561E085E00E9472050E94EE
:10350000DA04882379F060E086E00E9472050AC040
:103510008FE00E941A0990E0880F892F881F990B6D
:10352000892BB9F68EE00E941A098376682F6064B1
:103530008EE00E9472050E941B1181E0809354026C
:1035400089E080934D0288E0809364028091650257
:1035500090E06BE070E008960E94741D9093670203
:1035600080936602892B21F4109264021092650206
:1035700021E04BE151E162E370E080E090E00E94E5
:10358000E8028093680221E048E956E062E370E0D7
:1035900080E090E00E94E8028093690220E046E625
:1035A00053E060E777E180E090E00E94E8028093DA
:1035B0006A0220E047EF51E162E370E080E090E0D2
:1035C0000E94E80280936B0220E04CE45AE064E63B
:1035D00070E080E090E00E94E80280936D0221E0BC
:1035E00044E356E062E370E080E090E00E94E8028D
:1035F00080936C0221E04CEB50E164E670E080E0E7
:1036000090E00E94E80280936E0220E044E453E1DF
:1036100062E370E080E090E00E94E80280936F0235
:10362000CE0101960E94C200CE0101960E946B0E4F
:1036300020E044E553E060E777E180E090E00E941D
:10364000E8028093B70120E04FE050E164E670E0CB
:1036500080E090E00E94E8028093B60121E044E51A
:1036600056E162E370E080E090E00E94E80221E031
:1036700040E75FE068EC70E080E090E00E94E802E4
:1036800020E046EF5AE062E370E080E090E00E94C4
:10369000E8028093B50120E041E654E164E670E081
:1036A00080E090E00E94E8028093B40121E04BEDBD
:1036B0005EE061E070E080E090E00E94E8028BE074
:1036C000B82E90E0292E90E0392E26E0A22E38E088
:1036D000932E0E94DC020091470210914802209133
:1036E000490230914A02601771078207930709F473
:1036F00017C10E94DC0260934702709348028093D6
:10370000490290934A0280E00E94F7079091B80125
:10371000853001F1863071F181E00E94F70782E087
:103720000E94F7078091B8018330D8F5813008F402
:103730008FC082E00E942E07811103C081E00E94A9
:103740001E0681E00E942E07811131C082E00E9496
:103750001E062DC0913000F3933018F0955098302C
:10376000D8F6E0915A02F0915B0281E03097A1F225
:10377000848BD2CF933050F4913078F0E0915A029C
:10378000F0915B02309741F282E0F2CF9530B1F3D5
:1037900018F29850953090F3BFCF81E08093B80134
:1037A000BBCF833009F4A6C08550883010F283E087
:1037B0000E94F70784E00E94F70710E080916402FE
:1037C00090916502890F9927991F181719060CF017
:1037D0009FC01B9D70011124E0916602F091670269
:1037E000EE0DFF1D8081882389F181859285892BCB
:1037F00069F10E94DC02E0916602F0916702EE0D31
:10380000FF1DC180D280E380F480CF82D886E98614
:10381000FA864580568067807084AB01BC014C19E4
:103820005D096E097F09441555056605770570F039
:10383000D701C601840D951DA61DB71D81839283F6
:10384000A383B4830184F285E02D09951F5FB6CF71
:10385000E0915E02F0915F02309769F082858630D8
:1038600051F481E00E942E07811105C09092B801A9
:1038700082E00E94A30700915C0210915D02E0903B
:103880005E02F0905F020115110551F0F80182858A
:10389000853019F493E09093B801E114F104C9F470
:1038A000E114F10409F483CF0115110509F47FCF68
:1038B000F7018285863009F07ACF60E0C8010E9466
:1038C0002407882309F473CFC7010E949407C80115
:1038D0000CC0863029F760E0C7010E9424078823C6
:1038E000F9F2C8010E949407C7010E949407A092B0
:1038F000B8015DCFE0915C02F0915D02309709F470
:1039000056CF8285853009F052CF0E9466034FCF93
:103910008091B801853058F48330E8F4813090F418
:103920002114310409F4D5CE0E940000D2CE893092
:10393000B8F780916F020E94F6008111F1CF0E94CA
:103940004413EECF80916B020E94F6008111E8CF04
:103950000E94F711E5CF80916D020E94F60081115F
:10396000DFCF0E944C0ADCCFF999FECF92BD81BD1A
:10397000F89A992780B50895262FF999FECF1FBA96
:1039800092BD81BD20BD0FB6F894FA9AF99A0FBE88
:1039900001960895991B79E004C0991F961708F0C5
:1039A000961B881F7A95C9F78095089587FB082E86
:1039B000062687FD819567FD61950E94CA1C0EF45D
:1039C000919507FC81950895AA1BBB1B51E107C087
:1039D000AA1FBB1FA617B70710F0A61BB70B881F9F
:1039E000991F5A95A9F780959095BC01CD0108952E
:1039F00097FB072E16F4009407D077FD09D00E949C
:103A0000E41C07FC05D03EF4909581959F4F0895E6
:103A1000709561957F4F0895A1E21A2EAA1BBB1BDA
:103A2000FD010DC0AA1FBB1FEE1FFF1FA217B3078A
:103A3000E407F50720F0A21BB30BE40BF50B661FA0
:103A4000771F881F991F1A9469F760957095809564
:103A500090959B01AC01BD01CF010895052E97FB08
:103A60001EF400940E94451D57FD07D00E940C1DB6
:103A700007FC03D04EF40C94451D509540953095AD
:103A800021953F4F4F4F5F4F0895909580957095CA
:103A900061957F4F8F4F9F4F0895A29FB001B39FB5
:103AA000C001A39F700D811D1124911DB29F700D47
:103AB000811D1124911D08950E944D1DB7FF089589
:103AC000821B930B08950E944D1DA59F900DB49FDE
:103AD000900DA49F800D911D11240895EE0FFF1FDE
:103AE0000590F491E02D09940F931F93CF93DF93EA
:103AF000869F8001879F100D969F100D1124C8018D
:103B00000E94901DEC01009729F0A80170E060E090
:103B10000E94B51ECE01DF91CF911F910F910895A4
:103B20000F931F93CF93DF938230910510F482E0BF
:103B300090E0E0917802F091790230E020E0B0E08E
:103B4000A0E0309799F42115310509F44AC0281BEB
:103B5000390B24303105D8F58A819B8161157105B7
:103B600089F1FB0193838283FE0111C04081518161
:103B70000281138148175907E0F04817590799F453
:103B8000109761F012960C93129713961C9332962D
:103B9000CF01DF91CF911F910F910895009378028B
:103BA00010937902F4CF2115310551F042175307D4
:103BB00038F0A901DB019A01BD01DF01F801C1CF95
:103BC000EF01F9CF9093790280937802CDCFFE0177
:103BD000E20FF31F81939193225031093983288397
:103BE000D7CF2091760230917702232B41F4209198
:103BF00006013091070130937702209376022091DD
:103C00000401309105012115310541F42DB73EB76E
:103C10004091080150910901241B350BE091760277
:103C2000F0917702E217F307A0F42E1B3F0B281741
:103C3000390778F0AC014E5F5F4F2417350748F025
:103C40004E0F5F1F509377024093760281939193BA
:103C50009FCFF0E0E0E09CCFCF93DF930097E9F0B7
:103C6000FC01329713821282A0917802B0917902FE
:103C7000ED0130E020E01097A1F420813181820F26
:103C8000931F20917602309177022817390709F0A7
:103C900061C0F0937702E0937602DF91CF910895AF
:103CA000EA01CE17DF07E8F54A815B819E014115E5
:103CB0005105B1F7E901FB83EA8349915991C40F9A
:103CC000D51FEC17FD0761F4808191810296840F66
:103CD000951FE90199838883828193819B838A83DD
:103CE000F0E0E0E012968D919C9113970097B9F562
:103CF0002D913C911197CD010296820F931F209137
:103D00007602309177022817390739F6309751F546
:103D10001092790210927802B0937702A093760203
:103D2000BCCFD383C28340815181840F951FC817B4
:103D3000D90761F44E5F5F4F88819981480F591F01
:103D4000518340838A819B8193838283211531052E
:103D500009F0B0CFF0937902E09378029ECFFD0195
:103D6000DC01C0CF13821282D7CFDC0101C06D937A
:0C3D700041505040E0F70895F894FFCF58
:103D7C000AFF660000007A0280003F065B4F666D0A
:103D8C007D077F6F777C395E7971000000004305F9
:0C3D9C0016058C05EC040F05FC04ED047A
:00000001FF
