:020000040000FA
:100000000C9489000C94B1000C94B1000C94B100D4
:100010000C94B1000C94B1000C94B1000C94BB167C
:100020000C94B1000C94B1000C94B1000C94B1008C
:100030000C94B1000C94B1000C94B1000C94B1007C
:100040000C9471160C94B1000C94B1000C94B10096
:100050000C94B1000C94B1000C94B1000C94B1005C
:100060000C943D170C94B100D00700000000000074
:10007000D007000000000000D007000000000000D2
:10008000D00700000000000046000000460000000D
:100090004600000046000000460000004600000048
:1000A00046000000FE0100000200000000240027BE
:1000B000002A0000000000250028002B000000009E
:1000C000002300260029000404040404040404029C
:1000D00002020202020303030303030102040810E5
:1000E00020408001020408102001020408102000B2
:1000F00000000800020100000304070000000000E7
:100100000000001F1C1F1E1F1E1F1F1E1F1E1F0082
:100110005C1811241FBECFEFD8E0DEBFCDBF11E0C9
:10012000A0E0B1E0E8E7FDE302C005900D92AC323B
:10013000B107D9F722E0ACE2B1E001C01D92AA37C5
:10014000B207E1F710E0C9E8D0E004C02197FE0152
:100150000E946C1DC838D107C9F70E946E190C9413
:10016000BA1E0C94000080914E0290914F02833091
:10017000910528F0880F991F04970197F1F70895CA
:10018000FC01A0E7B2E08C91808311968C911197CD
:10019000818312968C911297828313968C91139778
:1001A000838314968C911497848315968C91858300
:1001B000089587FD18C02091640290916502290F6F
:1001C0003327331F482F082E000C550B42175307B7
:1001D00054F4E0916602F09167029BE08902E00D21
:1001E000F11D11241082089587FD21C02091640221
:1001F00090916502290F3327331F482F082E000CDA
:10020000550B421753079CF4E0916602F091670288
:10021000309769F09BE08902E00DF11D1124808187
:10022000882331F081E021853285232B09F480E099
:100230000895EBE4F2E01582168217821086089585
:1002400083E480937C0080917A00806480937A00BC
:1002500080917A0086FDFCCF8091780090917900A2
:1002600008958630F9F048F4823081F08430A9F0A6
:10027000109252021092530208958730B9F08830DC
:10028000B9F71092500210925102F2CF83E7809397
:10029000500286E880935102EBCF83E780935002AF
:1002A0008BEDF8CF8093500288EFF4CF83E78093F3
:1002B000500284EDEFCF833081F028F4813099F043
:1002C0008230A9F008958730A9F08830C9F08430D1
:1002D000B1F4809180008F7D03C0809180008F7782
:1002E00080938000089584B58F7784BD089584B588
:1002F0008F7DFBCF8091B0008F778093B000089501
:100300008091B0008F7DF9CFCF93DF93282F30E01D
:10031000F901E151FF4F8491F901E552FF4FD4916A
:10032000F901E953FF4FC491CC23A1F081110E9440
:100330005B01EC2FF0E0EE0FFF1FE354FF4FA591A0
:10034000B491EC91ED2381E090E009F480E0DF913D
:10035000CF91089580E090E0FACF1F93CF93DF9381
:10036000282F30E0F901E151FF4F8491F901E55266
:10037000FF4FD491F901E953FF4FC491CC23A9F069
:10038000162F81110E945B01EC2FF0E0EE0FFF1F92
:10039000ED54FF4FA591B4918FB7F894EC911111E2
:1003A00008C0D095DE23DC938FBFDF91CF911F91E2
:1003B0000895DE2BF8CFCF93DF9390E0FC01E55258
:1003C000FF4F249189539F4FFC0184918823C9F0EA
:1003D00090E0880F991FFC01E755FF4FA591B4915C
:1003E000FC01ED54FF4FC591D49161110DC09FB731
:1003F000F8948C91209582238C93888128232883DC
:100400009FBFDF91CF910895623051F49FB7F89468
:100410003C91822F809583238C93E8812E2BEFCF04
:100420008FB7F894EC912E2B2C938FBFEACFCF93FC
:10043000DF93CBE4D2E061E089810E94DB010E947E
:10044000B30060E088810E94DB010E94B30060E09D
:1004500089810E94DB01DF91CF910C94B3000F934F
:100460001F93CF93DF93D82FC8E061E080914B02B8
:100470000E94DB010E94B3000D2F10E060E0D0FF6E
:1004800061E080914C020E94DB010E94B30060E0B9
:1004900080914B020E94DB010E94B30015950795E5
:1004A000D02FC15011F761E080914B020E94DB0117
:1004B00060E080914C020E94DB010E94B30060E08A
:1004C00080914B020E94DB010E94B30080914C029C
:1004D0000E948401C82F811105C061E080914C0207
:1004E0000E94DB010E94B30061E080914B020E94F8
:1004F000DB010E94B30081E0C11101C080E0DF9107
:10050000CF911F910F91089561E080914C020E945C
:10051000DB010C94B3000F931F93CF93DF938C01F7
:100520000E94840280E40E942F020E9417020E940F
:10053000840280EC0E942F02E8010C5F1F4F89911A
:100540000E942F02C017D107D1F70E9417020E9404
:10055000840280914D028F7080580E942F02DF919B
:10056000CF911F910F910C9417023FB7F89480918F
:10057000BE019091BF01A091C001B091C10126B50B
:10058000A89B05C02F3F19F00196A11DB11D3FBFCB
:10059000BA2FA92F982F8827BC01CD01620F711D9A
:1005A000811D911D43E0660F771F881F991F4A9593
:1005B000D1F708952FB7F8946091BA017091BB01FB
:1005C0008091BC019091BD012FBF0895CF92DF9221
:1005D000EF92FF920F931F93CF93DF93E09164020A
:1005E00030916502CE2FC30FDD27DD1FDE01E090C5
:1005F0006602F0906702C0E03BE0CA171B0634F5C4
:100600008701C39F000D111D1124F801C184D284FC
:10061000CD28D1F46B017C012083C582D682E7828C
:10062000F086528741870E94DA02F8016183728363
:10063000838394838C2FDF91CF911F910F91FF9033
:10064000EF90DF90CF900895CF5FD7CF8FEFF3CFAC
:10065000CF93DF9387FD23C02091640290916502C0
:10066000290F3327331F482F082E000C550B421734
:100670005307ACF4C0916602D09167029BE08902F7
:10068000C00DD11D112489859A85892B41F081E007
:1006900088830E94DA0269837A838B839C83DF914B
:1006A000CF9108958091B8018A3041F4E0915A02C7
:1006B000F0915B02309711F082E0848B8091B7015A
:1006C0000C94D900089508958091B801853068F49C
:1006D000833088F4813058F0E0915A02F0915B0247
:1006E000309729F082E0848B02C08930A8F3809192
:1006F0006A020C94D90080916D020E94D900109278
:10070000B801F5CF20918601260F3327331F213200
:100710003105ECF420910A02FC0190E080E02430E5
:1007200069F082E00895A09186012191AC014A59B7
:100730005E4FA40FB52FB11D2C930196861798F329
:1007400080918601680F6093860180E0089581E0C2
:10075000089510920A0281E0809309021092E40148
:1007600061E082E10E94AD0161E083E10E94AD01A0
:10077000E9EBF0E080818E7F808380818D7F8083B4
:1007800080E28093B80085E48093BC000895CF9305
:10079000DF9391E0909365018823B9F0C091B80090
:1007A000D091BA008091BC008A7B8093BC0060E04D
:1007B00082E10E94AD0160E083E10E94AD010E94F0
:1007C000A903D093BA00C093B800DF91CF910895E8
:1007D0008F929F92AF92BF92CF92DF92EF92FF9251
:1007E0000F931F93CF93DF93D0913302D13208F050
:1007F000D7C0182FC09132020E94B5026B017C0154
:1008000080910A0281116BC082E080930A021093EA
:1008100009028FEF8093080210920702D09306021C
:10082000A2E1B2E0E6EEF1E080E0D81391C01092D0
:10083000E5018091E501CC0FC82BC093E5018091C3
:10084000E401813009F088C01092E4010E94B502F1
:100850006B017C018091E5018093BB0080910C02CB
:1008600090910D02A0910E02B0910F02892B8A2B5C
:100870008B2BA1F00E94B50200910C0210910D0289
:1008800020910E0230910F026C197D098E099F098B
:10089000061717072807390708F442C08091BC00E3
:1008A00083FDD8CF85EC8093BC000E94B5026B011C
:1008B0007C0180910A02823009F450C080910802C4
:1008C0008F3F09F46FC080910802803209F46CC038
:1008D00080910802803309F469C084E026C08091C9
:1008E0000C0290910D02A0910E02B0910F02892B83
:1008F0008A2B8B2B09F484CF0E94B50280900C02C6
:1009000090900D02A0900E02B0900F026C197D091C
:100910008E099F0986169706A806B90608F070CFBB
:1009200080910B020E94C70385E010921102109281
:10093000330210921002DF91CF911F910F91FF901F
:10094000EF90DF90CF90BF90AF909F908F900895E1
:100950009D9191938F5F69CF85EEA5CF80910C0219
:1009600090910D02A0910E02B0910F02892B8A2B5B
:100970008B2B09F49ECF0E94B50200910C021091BE
:100980000D0220910E0230910F026C197D098E0923
:100990009F09061717072807390708F08ACFC0CF25
:1009A00081E0C3CF80E0C1CF82E0BFCF83E0BDCF85
:1009B00081E08093100288E6809332021092110247
:1009C0001092330281E00E94E80391E0811190E0EF
:1009D000892F08950895E091C3018091C201E8171D
:1009E00030F4F0E0EC53FE4F808190E008958FEFFB
:1009F0009FEF08959091C3018091C2012FEF3FEFC7
:100A0000981748F4E92FF0E0EC53FE4F208130E0D6
:100A10009F5F9093C301C90108958091C201909195
:100A2000C301891B990B0895CF92DF92EF92FF9239
:100A30000F931F93CF93DF937C01CB018A01209109
:100A40001002222389F0EB016B01C40ED51ECC15D8
:100A5000DD0569F06991D701ED91FC910190F0817C
:100A6000E02DC7010995F3CF642F0E948203C801CE
:100A7000DF91CF911F910F91FF90EF90DF90CF907A
:100A80000895CF93DF931F92CDB7DEB7698320918E
:100A900010022223F9F020913302203258F021E095
:100AA00030E0FC013383228390E080E00F90DF91FF
:100AB000CF91089580911102E82FF0E0EE5EFD4F96
:100AC000998190838F5F809311028093330281E03C
:100AD00090E0ECCF61E0CE0101960E948203F7CF57
:100AE000CF93C62F91E09093100298E69093320234
:100AF0001092110210923302682F84E392E00E9458
:100B000041056C2F84E392E00E94410581E0CF9182
:100B10000C94E80390E080E008951F93CF93DF9357
:100B2000D82FC62F142F0E941901D7FD16C08D2F64
:100B30006AE00E94D41CE82F880FFF0BE65FFE4F8F
:100B4000808180935002E92F990FFF0BE65FFE4FE3
:100B500080811111806880935102C7FD14C08C2FD1
:100B60006AE00E94D41CE82F880FFF0BE65FFE4F5F
:100B7000808180935202E92F990FFF0BE65FFE4FB1
:100B8000808180935302DF91CF911F910895382F78
:100B9000862F64E60E94C81C292F323059F1333069
:100BA00021F187E7809350028CE9809351022A302B
:100BB00068F141112BC0822F6AE00E94C81CE82F07
:100BC000F0E0E65FFE4F80818093520280E04111A9
:100BD00009C0822F6AE00E94C81CE92FF0E0E65F9E
:100BE000FE4F808180935302089588E780935002DE
:100BF00084EFDBCF8CE7809350028091B801863080
:100C000019F086E08068D1CF8FE3FCCF80E0DCCFA5
:100C1000883070F4823078F08150853028F4982F35
:100C2000990F990F890F0895853021F08CE308956D
:100C300081E008958EE10895E82FF0E0EE0FFF1FA8
:100C4000E65AFD4F0190F081E02D309751F08285FA
:100C5000833038F0853018F0863009F0089581E04F
:100C6000848B089580E592E0FC0135810196208116
:100C700032130AC022E084359207B1F790915902ED
:100C8000809154029817C1F08091500280935502D0
:100C900080915102809356028091520280935702B4
:100CA000809153028093580280915402809359029C
:100CB00080E592E00C948B020895E0915A02F09145
:100CC0005B02309709F0148AE0915C02F0915D02BA
:100CD000309709F0148AE0915E02F0915F0230973C
:100CE00009F0148A08950E94D90080916A020E9436
:100CF000D9000C945D060F93FC018081442381F0A0
:100D00008F5F80838081681720F0222339F0811162
:100D100005C0002339F04111622F60830F910895BF
:100D20008150EFCF4111262F2083F8CF0F931F93CF
:100D3000CF93DF9300D000D000D0CDB7DEB7809145
:100D4000320181110AC0CE0101960E94C0008E813D
:100D50008093310181E080933201CE0101960E949F
:100D6000C0008E81909131019817F1F0CE0101966B
:100D70000E94C0008E8180933101109251010E9427
:100D8000DA0260932D0170932E0180932F019093CE
:100D9000300126960FB6F894DEBF0FBECDBFDF91AF
:100DA000CF911F910F910895809151018111F1CF41
:100DB0000E94DA0200912D0110912E0120912F0145
:100DC00030913001601B710B820B930B643F7140BB
:100DD00081059105F0F281E080935101DACF1F93F4
:100DE000CF93DF93EC01862F142F22E330E03A8378
:100DF000298328EE33E03C832B832CE231E03E83D1
:100E00002D8391E09F8324E630E0398728871A8676
:100E100090E19B871C861D861E861F86188A198A6C
:100E20001A8A1B8A1C8A688362E00E94DB018B8518
:100E30008B7F8B87112311F082E08F83DF91CF911D
:100E40001F910895FC01838590E002C095958795D8
:100E50006A95E2F781700895E82FF0E0EE0FFF1F2A
:100E6000E65AFD4F80819181009719F060E00C9463
:100E7000220780E008950F931F93CF93DF93362FBF
:100E80002AE0622F0E94C81C8F70E82FF0E0E65F16
:100E9000FE4FD081E92FF0E0E65FFE4FC081832F47
:100EA0000E94C81C8F70E82FF0E0E65FFE4F0081C3
:100EB000E92FF0E0E65FFE4F10818091B8018A30A3
:100EC000B9F480915101811113C081E00E942C0777
:100ED00081110EC082E00E942C07811109C080910F
:100EE00057018430C9F090F48230B1F08330B9F00A
:100EF000D0935002C058C0935102009352021093F5
:100F00005302DF91CF911F910F910895853039F0F1
:100F1000863071F710E000E0C0E0D0E0E9CF10E0EB
:100F200000E0E6CFCF93DF93EC018B858F738B8747
:100F30001C8A60E0CE010E9422078A87DF91CF9150
:100F40000895E82FF0E0EE0FFF1FE65AFD4F808175
:100F50009181009711F00C9492070895CF92DF923F
:100F6000EF92FF920F931F93CF93DF93EC011B85BA
:100F7000012F077F0B876623A1F069017A01802F7B
:100F800081608B8766E0CE010E942207811116C026
:100F900083E08A8701640B87C88AD98AEA8AFB8A38
:100FA00004C0167F1B8782E08A87DF91CF911F9153
:100FB0000F91FF90EF90DF90CF90089588899989E5
:100FC000AA89BB89C81AD90AEA0AFB0A8D819E81BF
:100FD000B0E0A0E08C159D05AE05BF0530F384E0C0
:100FE0008A87177B11601B87E0CF8F929F92AF9209
:100FF000BF92CF92DF92EF92FF921F93CF93DF9336
:10100000E82FF0E0EE0FFF1FE65AFD4FC081D181BF
:1010100080E0209711F10E94DA026B017C01A98027
:10102000BA80A114B10429F163E0CE010E94220725
:101030008823F9F08C859D85AE85BF85B701A60113
:10104000481B590B6A0B7B0BC501B0E0A0E04817A9
:1010500059076A077B0768F48A85DF91CF911F9152
:10106000FF90EF90DF90CF90BF90AF909F908F90C8
:10107000089588810E9484015C0161E0CE010E9494
:10108000220711E0882321F0AB2821F410E002C0F0
:10109000AB28E1F762E0CE010E942207882311F01D
:1010A00081E0182760E0CE010E942207811384C0EE
:1010B00063E0CE010E942207811126C0111139C0C0
:1010C0001A8688899989AA89BB89C81AD90AEA0A1D
:1010D000FB0A8D819E81B0E0A0E08C159D05AE05D8
:1010E000BF0508F0B9CF64E0CE010E942207882333
:1010F00041F066E0CE010E942207882311F085E0CE
:101100008A878B858F738B878A85833008F4A4CF79
:10111000853018F0863009F09FCF10916A02812F38
:101120000E94F400882309F497CF812F0E9428039E
:1011300093CF8C859D85AE85BF8546015701881A62
:10114000990AAA0ABB0A67E0CE010E9422074B81D6
:101150005C8170E060E084169506A606B70610F480
:10116000882371F09F8181110EC0923021F4CC86CA
:10117000DD86EE86FF868B8580688B8786E01AC0C9
:1011800081E08A87C1CF913081F09230B9F78885AC
:101190009985B0E0A0E088169906AA06BB0648F03B
:1011A000CC86DD86EE86FF86E9CF9A878B858F7B9E
:1011B000AACF81E08A87FACFA980BA80A114B104AE
:1011C00061F163E0CE010E942207811113C0CC8639
:1011D000DD86EE86FF868B8588608B878A858630E4
:1011E00021F48F81882309F498CF60E0CE010E941A
:1011F0002207C7CF8C859D85AE85BF85B701A60127
:10120000481B590B6A0B7B0BC501B0E0A0E04817E7
:1012100059076A077B0708F477CFCC86DD86EE8610
:10122000FF86A7019601612FCE010E94AE076CCF09
:10123000CF92DF92EF92FF920F931F9391E09093E2
:10124000100298E69093320210921102109233022B
:10125000682F84E392E00E94410581E00E94E80348
:101260000E94B5026B017C0180910A02811163C06A
:1012700081E080930A02809309029FEF9093080215
:1012800010920702109206028093E5018091E50119
:10129000806D8093E5018091E401813009F080C088
:1012A0001092E4010E94B5026B017C018091E5017E
:1012B0008093BB0080910C0290910D02A0910E02D0
:1012C000B0910F02892B8A2B8B2BA1F00E94B502C3
:1012D00000910C0210910D0220910E0230910F022C
:1012E0006C197D098E099F0906171707280739070A
:1012F00008F442C08091BC0083FDD8CF85EC809378
:10130000BC000E94B5026B017C0180910A02813011
:1013100009F448C080910702811166C080910702DC
:10132000A6EEB1E0E4ECF1E090E0981751F12D91D8
:1013300021939F5FFACF80910C0290910D02A091B2
:101340000E02B0910F02892B8A2B8B2B09F48CCFC4
:101350000E94B50200910C0210910D0220910E0224
:1013600030910F026C197D098E099F090617170726
:101370002807390708F078CF80910B020E94C70335
:1013800080E01092C3018093C20184E392E00E9446
:10139000FA041F910F91FF90EF90DF90CF90089586
:1013A00085EEADCF80910C0290910D02A0910E02BE
:1013B000B0910F02892B8A2B8B2B09F4A6CF0E94A8
:1013C000B50200910C0210910D0220910E02309195
:1013D0000F026C197D098E099F0906171707280748
:1013E000390708F092CFC8CF81E09ACF0E94D80485
:1013F000882341F082E00E941809682F6F7B82E009
:101400000C94700508951F93CF93DF93C82F162F68
:1014100060E080E00E947005DAE0812F6D2F0E946D
:10142000C81C8295807F682F690F81E00E9470053B
:1014300082E00E94180986FF23C0CD30C0F084EFFF
:101440008C0F6D2F0E94C81C682F6295607F690FFA
:10145000606682E00E9470058FE00E941809682F84
:101460006F778FE0DF91CF911F910C9470058C2FD7
:101470006D2F0E94C81C8295807F682F690FE9CF6D
:101480008C2F6D2F0E94C81C682F6295607F690F9A
:101490006F7BDFCF0F931F93CF93DF93C0916D02CC
:1014A0008C2F0E94F40081110EC08091B8018350EE
:1014B000823030F483E080934D0184E080934C01CE
:1014C0008C2F0E9428030E94DA020091480110919B
:1014D000490120914A0130914B01601B710B820B35
:1014E000930B683E73408105910508F478C00E9413
:1014F000DA02609348017093490180934A01909306
:101500004B010E94190180914D018330C9F50E9461
:10151000D804C1E88823C1F081E10E941809C82FCE
:1015200082E10E941809DC2FC82F86E0D595C79567
:101530008A95E1F7CE0183709927D695C795D69500
:10154000C795039709F421960C2E000CDD0B0E9421
:10155000190183E680935302D7FF06C0D195C19548
:10156000D10980E480935102C436D105C4F080E4EF
:1015700080935002809351028093520280935302D1
:1015800080914D018F5F80934D0190914C01981790
:1015900030F5DF91CF911F910F910C946403CA3005
:1015A000D1058CF080915102803411F48093500267
:1015B000CE016AE070E00E94F61CFB01E65FFE4F80
:1015C000808180935102CE016AE070E00E94F61C97
:1015D000FC01E65FFE4F808180935202D1CFDF9104
:1015E000CF911F910F9108954F925F926F927F92CA
:1015F0008F929F92AF92BF92CF92DF92EF92FF9223
:10160000CF93DF93CDB7DEB729970FB6F894DEBF3F
:101610000FBECDBF4091B5014983842F0E94F400D5
:10162000811182C089810E94280310926401109266
:1016300063018091640190E00896880F991F880FDC
:10164000991FFC01E859FF4F4590559065907490A3
:10165000FC01E85BFF4F85919591A591B491898339
:101660009A83AB83BC8380910101873009F478C0F1
:101670008F3F09F4F4C0D090640144E0D49EF0019F
:101680001124E857FF4F45915591659174918091D0
:10169000B501898387FD2CC0809164029091650219
:1016A000890F9927991FA9812A2F0A2E000C330B25
:1016B00028173907ECF4E0906602F0906702BBE06F
:1016C000AB02E00CF11C1124F701458356836783BC
:1016D000708781859285892B59F081E080830E94F3
:1016E000DA02D70111966D937D938D939C93149795
:1016F00081E08D0D883008F03BC28093640129960B
:101700000FB6F894DEBF0FBECDBFDF91CF91FF9033
:10171000EF90DF90CF90BF90AF909F908F907F9091
:101720006F905F904F90089580914402823009F449
:1017300080CF898129960FB6F894DEBF0FBECDBF4A
:10174000DF91CF91FF90EF90DF90CF90BF90AF905F
:101750009F908F907F906F905F904F900C94D900E6
:10176000E8EAF0E09491998797FD85CF61E087E002
:101770000E94DB01B985BB2321F0E985E23009F045
:1017800087C189809A80AB80BC80AA24BB2460E09A
:1017900079E08DE390E0A50194010E942C1D2D833A
:1017A0003E834F83588769017A01F1E0CF1AD1084F
:1017B000E108F1084FEFC416D104E104F10409F087
:1017C0000CF43BC160E271EA87E090E0A50194016E
:1017D0000E942C1D69017A0181E0C81AD108E10834
:1017E000F1089985923009F0ABC082E0AFEFCA16DC
:1017F000D104E104F10409F00CF4F1C068E478EEDE
:1018000081E090E0A50194010E942C1D69017A01FC
:10181000B1E0CB1AD108E108F10883E0EFEFCE1672
:10182000D104E104F10409F00CF4D9C064E274EFCE
:1018300080E090E0A50194010E942C1D69017A01CD
:10184000F1E0CF1AD108E108F1084FEFC416D10436
:10185000E104F10411F008F0C9C084E0C0C087E0E1
:1018600080930101E8EAF0E0A491A987AF3F09F471
:1018700002CFA13029F158F0A23009F43FC0898588
:1018800087FDF9CE61E087E00E94DB0176CF14BCD2
:1018900015BC84B5826084BD85B5816085BDEEECE4
:1018A000F0E0E491F0E0EE0FFF1FED54FF4F859163
:1018B0009491E2EEF0E0E491E0935A01198656CF5C
:1018C0001092800010928100809181008860809346
:1018D000810080918100816080938100EEECF0E0D6
:1018E000E491F0E0EE0FFF1FED54FF4F85919491CE
:1018F000E2EEF0E0E491E093590138CF1092B000AD
:101900001092B1008091B00082608093B00080910D
:10191000B10081608093B100EEECF0E0E491F0E082
:10192000EE0FFF1FED54FF4F859194919093AA0104
:101930008093A901E2EEF0E0E491E093AB0116CFD1
:10194000FFEFCF16D104E104F10409F00CF49EC0BE
:1019500064E274EF80E090E0A50194010E942C1DE8
:1019600069017A0181E0C81AD108E108F108998576
:10197000992309F44DC19FEFC916D104E104F10484
:1019800009F008F46ACF69E07DE380E090E0A5010A
:1019900094010E942C1D69017A01E1E0CE1AD10860
:1019A000E108F108F985FF2309F417C186E0EFEF9C
:1019B000CE16D104E104F10491F088F0CD80DE80F0
:1019C000EF80F8848AE0F594E794D794C7948A95D9
:1019D000D1F7B1E0CB1AD108E108F10887E0909186
:1019E000B100987F892B8093B1002FC062E17AE724
:1019F00080E090E0A50194010E942C1D69017A010C
:101A0000A1E0CA1AD108E108F10885E0BFEFCB16C2
:101A1000D104E104F10419F310F369E07DE380E0FF
:101A200090E0A50194010E942C1D69017A01A1E0BA
:101A3000CA1AD108E108F108B9CF81E049854111FE
:101A4000CECF95B5987F892B85BD2FEF3FEFA901AC
:101A5000411451046104710409F048C0E985E13082
:101A600009F464C0E23009F473C0E11104CEC7BCCC
:101A700020935F01309360014093610150936201B4
:101A800080916E00826080936E00F5CD82E0D6CFAB
:101A900089809A80AB80BC80AA24BB2460E079E076
:101AA0008DE390E0A50194010E942C1D69017A014B
:101AB00081E0C81AD108E108F108C114D10491E00D
:101AC000E906F10414F591E0B985B13009F0BDCF14
:101AD00080918100887F892B809381002FEF3FEFD9
:101AE000A901411451046104710401F1A981BA8171
:101AF000AA0FBB1FA30192010E94611D28EE33E0D3
:101B000040E050E00E940A1DA9CF64E274EF80E03B
:101B100090E0A50194010E942C1D69017A01A1E0C9
:101B2000CA1AD108E108F10893E0CECFD09289001B
:101B3000C092880020935B0130935C0140935D016B
:101B400050935E0180916F00826080936F0093CD0F
:101B5000C092B3002093AC013093AD014093AE012D
:101B60005093AF018091700082608093700083CDAC
:101B700010926401809163018F5F8C3318F480931D
:101B80006301BDCD1092630189810E94D900B981A2
:101B9000B7FD1FC08091640290916502890F99275B
:101BA000991F2B2F0B2E000C330B281739078CF4A1
:101BB000E0916602F09167024BE0B402E00DF11D86
:101BC000112482E390E0A0E0B0E085839683A783B0
:101BD000B08781E08093440292CD84E0AFEFCA16D3
:101BE000D104E104F10409F008F42BCFCD80DE80AC
:101BF000EF80F8849AE0F594E794D794C7949A9587
:101C0000D1F791E0C91AD108E108F10885E019CFB0
:101C10008FEFC816D104E104F10411F008F0B3CE3F
:101C200083E00FCF0F931F93CF93DF9300D0CDB7F7
:101C3000DEB70091420210914302080F111DC80146
:101C40000E94B21C8983C80101960E94B21C8A833B
:101C500089819A810F900F90DF91CF911F910F9101
:101C6000089581E00C94120E83E00C94120E0F93F1
:101C70001F93CF93DF938C010E94310EEC010E94E1
:101C8000340EAC01F80180819181803AF5E09F0724
:101C900028F0805A9540F80191838083C417D507B6
:101CA00051F0F80120813181C417D50730F481E06B
:101CB0002C173D0730F480E007C081E02C173D076A
:101CC00018F424173507B8F7DF91CF911F910F91C2
:101CD0000895AF92BF92CF92DF92EF92FF920F934F
:101CE0001F93CF93DF9300D0CDB7DEB75C010E9486
:101CF000310E8C010E94340EAC01F501238130E0DD
:101D0000A0E1BEE00E944B1D6B017C01248130E00C
:101D1000ACE3B0E00E944B1DC60ED71EE81EF91EB4
:101D20008581C80ED11CE11CF11C4017510738F405
:101D3000F0E8CF0EF1E5DF1EF1E0EF1EF11C1A8393
:101D4000098385E00E94120E5C0149815A81FA01E3
:101D5000EA0DFB1D9A01ACE3B0E00E944B1D6C152F
:101D60007D058E059F0518F15A834983CE010196A2
:101D70000E94370E811102C01A83098389819A81DA
:101D8000803A25E0920710F0805A954090934602E1
:101D9000809345020F900F90DF91CF911F910F918B
:101DA000FF90EF90DF90CF90BF90AF900895AF017C
:101DB000CECF0F931F93CF93DF9300D000D000D0EE
:101DC000CDB7DEB780914402823079F4EAE5F2E0E3
:101DD00080E0A191B191109729F01A969C919350AF
:101DE000923028F18F5F8330A1F7809156018823CC
:101DF00051F0CE0101960E94C000CE0101960E94D2
:101E0000690E109256018091B8018330B0F4E091D0
:101E10005A02F0915B028130E8F0309781F08489BA
:101E20008150823060F481E08093560108C091E0D7
:101E3000909344020E94A10702C08930E1F12696E6
:101E40000FB6F894DEBF0FBECDBFDF91CF911F91CB
:101E50000F910895309729F082858430F9F085300C
:101E600021F1E0915C02F0915D02309741F38285AF
:101E7000863029F780914402882309F30E94310EAD
:101E80008C010E94340E08171907C9F289E080936B
:101E9000B80188E08093570181E0CCCF8AE080933D
:101EA000B80180E00E94A107DCCF80914402882322
:101EB000C1F289E0F4CFE0915A02F0915B023097D1
:101EC00009F4BDCF8285853009F0B9CF8091B60184
:101ED0000E94D9001092B80180E0ACCFCF92DF927F
:101EE000EF92FF920F931F93CF93DF93CDB7DEB79F
:101EF00028970FB6F894DEBF0FBECDBFCE01019676
:101F00000E94C0008C81ED80F12C2CE3829FE00CBC
:101F1000F11C1124F886EF8280914402823009F08E
:101F20006DC01091580181E0810F823008F063C0CC
:101F30008093580160E0809140020E94AD01612FC2
:101F4000809141020E94AD01809144028130C1F52F
:101F500000914502109146022CE330E0D7010E9427
:101F60005A1D2E816B017C01C20ED11CE11CF11C9B
:101F70009801ACE3B0E00E944B1DC616D706E806F8
:101F8000F906F1F482E08093440285E00E94120E8B
:101F9000800F911F803A25E0920710F0805A9540FB
:101FA000909346028093450285E492E00E94370EAA
:101FB000811106C00E94310E909346028093450223
:101FC00080914402823041F48091B5010E94F40076
:101FD000811102C00E94F40A28960FB6F894DEBF61
:101FE0000FBECDBFDF91CF911F910F91FF90EF906A
:101FF000DF90CF900895109258019CCF10E0882375
:1020000009F498CFCE0107960E94370E10E061E0E8
:10201000882309F490CF11E08DCFFF920F931F9387
:10202000CF93DF930E94310EEC010E94340EFF2407
:10203000F394C817D90711F084E0F82E1091B60177
:10204000812F0E94F400811111C0812F0E9428036A
:10205000109255011092540180915701883031F44B
:102060000E94310E9093530180935201D0915501FB
:102070008091570101E00D0F811144C0C0915401BE
:10208000C13001F168F0C23009F1809145029091B0
:10209000460227E0C33039F022E090E080E003C040
:1020A0000E94310E22E0D830B0F4822F0E9431011C
:1020B0000431D8F400935501DF91CF911F910F9116
:1020C000FF9008950E94340E24E0EDCF85E00E9439
:1020D000120E26E0E8CF6CE370E00E94E21C962F1F
:1020E000682F892F0E943B07E3CF10925501CF5FE5
:1020F000C0935401CF1500F3812F0E94D900109294
:10210000B801DACFD450DC3028F188E00E943101E8
:10211000043180F210925501809154018F5F8093B9
:10212000540185E00E94120E20915201309153011A
:10213000820F931F909353018093520182E591E0A7
:102140000E94370E8111B8CF812F0E94D9001092C2
:102150005701D5CF80915201909153016CE370E00B
:102160000E94E21C962F682F892F0E943B07D0CF38
:102170000C94B21C0F931F93CF9380916F020E9417
:10218000F400882331F08091B8018650823008F441
:1021900042C0C091540280913F01811109C00E9448
:1021A000200190933E0180933D0181E080933F01A7
:1021B00000913D0110913E01000F111F0E9420016E
:1021C000800F911F63E070E00E94E21C8B0170930E
:1021D0003E0160933D018FE590E00E94B810209190
:1021E000020130910301482F429FC001439F900D8F
:1021F00011240817190798F482E690E00E94B8109D
:10220000C82F8C2FC83008F087E080935402C77025
:10221000C860C0934D02CF911F910F9108953695DC
:102220002795280F391F2017310758F783E690E0CC
:10223000E5CFDF92EF92FF920F931F93CF93DF933F
:10224000CDB7DEB72C970FB6F894DEBF0FBECDBF6B
:102250000E94D804882309F4A9C080E00E941809CC
:10226000E82E81E00E941809F82E82E00E941809E9
:10227000082F84E00E941809182F85E00E94180991
:10228000D82E86E00E9418093E2D329537709AE0CC
:102290002E2D2F70399F200D11244F2D42954F70F8
:1022A0003F2D3F70499F300D1124502F52955F7084
:1022B000402F4F70599F400D1124512F52955F7040
:1022C000E12FEF70599FE00D11245D2D529557704D
:1022D000FD2DFF70599FF00D1124582F52955F70FE
:1022E0008F70599F800D112490E064E670E00E9489
:1022F000E21C9FEF9F0F9C3008F0F1E09FEF9E0FD4
:102300009F3108F0E1E0483108F040E03C3308F04C
:1023100030E02C3308F020E080937002F0937102DB
:10232000E09372024093730230937402209375021B
:102330008091B80181112CC0CE0101960E94C0008D
:102340008E81811110922C0180E690E00E94B810DD
:102350000E940806182F8823B9F1CE0107960E9423
:10236000C0008B85612F0E94C81C91112DC0CE0129
:1023700001960E94C0008E81811126C080912C019F
:10238000811122C081E080932C0184E08093B80108
:102390002C960FB6F894DEBF0FBECDBFDF91CF9164
:1023A0001F910F91FF90EF90DF90089510927002AF
:1023B00081E08093710280937202109273021092F6
:1023C000740210927502B4CF00915101CE010796AC
:1023D0000E94C0001B85CE0101960E94C000402FC4
:1023E000612F8C810E948D05D3CFFF920F931F9395
:1023F000CF93DF9300D000D000D0CDB7DEB71091DF
:102400006B02812F0E94F400811130C0812F0E9445
:10241000280380916A020E9428030E945D06809131
:10242000B8018150823070F4CE0101960E94C00044
:102430008C8180933B01CE0101960E94C0008D816A
:1024400080933A0110923C010E94190180E592E0CC
:102450000E948B0226960FB6F894DEBF0FBECDBF4A
:10246000DF91CF911F910F91FF90089580913C01D2
:10247000811113C08091B8018150823070F4CE0177
:1024800001960E94C0008C8180933B01CE01019691
:102490000E94C0008D8180933A01E0915A02F09130
:1024A0005B023097B1F18489882399F180913C01D6
:1024B0008823B9F08091B8018150823080F40E9465
:1024C000F60900913A0110913B010E94D80488233B
:1024D00021F0602F812F0E94030A0E94191110928F
:1024E0003C01E0915A02F0915B0280916B023097BF
:1024F00041F09489148A913021F49091B80191307F
:1025000019F01092B80103C092E09093B8010E94B4
:102510007306E0915C02F0915D02309709F444C0CB
:102520008489813009F040C08489148A41E0813077
:1025300009F040E08091B801813009F447C0823051
:1025400009F44CC081E080933C011091B801112343
:1025500009F480CF80916B020E94F400882309F473
:1025600079CFF0903A0100913B01809151018111A6
:1025700010C081E00E942C0781110BC082E00E94F4
:102580002C07811106C0113079F1123011F4FF24AB
:10259000FA940E94190141E0133008F040E06F2DD9
:1025A000802F0E948D0556CFA0915E02B0915F02F0
:1025B000109759F254968C91549754961C928130EE
:1025C00021F6309709F0B0CF80E0B0CF01E020E0F5
:1025D00067E18BE391E00E947B06B4CF01E020E04D
:1025E0006BE38AE391E0F7CF0FEFD3CF85ED8093D4
:1025F000BC0080910C0290910D02A0910E02B0914E
:102600000F020796A11DB11D23E0B695A7959795DA
:1026100087952A95D1F72091BC0024FD03C0109224
:102620000A02089540910C0250910D0260910E0231
:1026300070910F02452B462B472B69F30097A1059C
:10264000B10541F025E12A95F1F700000197A109B4
:10265000B109E1CF80910B020C94C7031F93CF9374
:10266000DF93EC01162F0E94B21C181739F0612F6E
:10267000CE01DF91CF911F910C94BA1CDF91CF91C5
:102680001F9108950F93CF93DF93D0916F028D2FF9
:102690000E94F400C091B80181112AC08D2F0E94C0
:1026A000280380916A020E9428030E945D06C630BA
:1026B000E1F068F48FE590E0C53079F00E941901EF
:1026C00080E592E0DF91CF910F910C948B02C7309F
:1026D00049F080E690E0C83089F70E94B8108093F6
:1026E0004701ECCF83E690E0F8CF82E690E0F5CFAB
:1026F000E0915A02F0915B02309781F0D489DD239A
:1027000069F0148AC63009F463C008F049C06091CA
:1027100047018FE590E0C53009F44BC0E0915C02C1
:10272000F0915D02309709F463C08489813009F02B
:102730005FC08489148A41E0813009F040E08091D3
:10274000B801883008F068C0863008F070C000E03A
:1027500021E069E0853009F465C0D091B801DD233E
:10276000D9F0C0915101C11165C081E00E942C07D0
:10277000811105C082E00E942C07C1E0C827D83033
:1027800008F05AC0D63008F062C04C2F6091470163
:1027900083E0D53009F46AC0DF91CF910F9108959D
:1027A000C73051F06091470180E690E0C83009F0F1
:1027B000B5CF0E942E1309C06091470183E690E0D7
:1027C0000E942E1385E0D13061F01092B8010BC049
:1027D0006091470182E690E00E942E13D130A9F764
:1027E00087E08093B80180916F020E94730696CFB4
:1027F000A0915E02B0915F02109709F4AECF54969B
:102800008C91549754961C92813009F0A6CF309742
:1028100009F08FCF80E08FCF00E020E0883009F012
:102820009CCF67E087E491E00E947B0696CF00E0B2
:1028300021E0F7CFC0E0A3CFD83009F0ADCF809131
:1028400047010E9408064C2F682F81E00FC060915D
:102850004701862F683008F087E080935402862F66
:102860008770886080934D024C2F82E0DF91CF917A
:102870000F910C94C705FF920F931F93CF93DF9393
:10288000EC018B01FB01F0800E94B21CF81621F0D4
:102890006F2DCE010E94BA1CF801F1802196CE0165
:1028A0000E94B21CF81621F06F2DCE010E94BA1CB6
:1028B000C801DF91CF911F910F91FF9008950F9361
:1028C0001F93CF93DF93CDB7DEB72C970FB6F89455
:1028D000DEBF0FBECDBF1091B401812F0E94F40066
:1028E000811116C0812F0E9428038091B7010E9498
:1028F000280380915701823010F01092000184303B
:1029000028F5823068F5813009F447C010924E01F5
:1029100090910001983008F04DC080915701282F08
:102920002B7F223019F0843009F044C09F5F9093D0
:1029300000010E9431012C960FB6F894DEBF0FBE45
:10294000CDBFDF91CF911F910F9108958630C8F0D0
:102950008630E1F685E00E94120E80935001D6CFBA
:102960000E94310E0CE310E0B8010E94E21C60935B
:1029700050010E94310EB8010E94E21C80934F0169
:10298000C5CF0E94340E0CE310E0B8010E94E21C97
:10299000609350010E94340EEECF809142029091DC
:1029A00043020E94B81091E0811101C090E0909321
:1029B0005001ACCFE0915A02F0915B023097E1F107
:1029C00084898823C9F18091B7010E9428038091EE
:1029D0004E018823C9F020914F01809150019091C0
:1029E0005701943008F053C0923008F064C0913021
:1029F00009F485C0CE0101960E94C000CE01019667
:102A00000E94690E10924E01E0915A02F0915B0211
:102A1000309791F08489813009F0ABC010920001A9
:102A200080915701863009F078C0E0915A02F09108
:102A30005B02309709F09BC0E0915C02F0915D026F
:102A4000309709F4A8C08489813009F0A4C080912E
:102A5000B7010E942803E0915C02F0915D0220E042
:102A6000309711F02489148A809150019091570178
:102A7000933009F4CDC008F0A7C0913009F4DDC04F
:102A8000923009F4B2C081E080934E018FC096303D
:102A900028F1963009F0AECF853B08F084EB90E04A
:102AA00098878F838091420290914302BE01695FB3
:102AB0007F4F059610C030E09CE3899F200D311DAB
:102AC00011243C872B878091420290914302BE01E2
:102AD000655F7F4F01960E943B148CCF30E09CE3F2
:102AE000899F200D311D11243A8729878091420248
:102AF00090914302BE01675F7F4F0396ECCF11E0D8
:102B0000811101C010E0612F809142029091430237
:102B10000E942E13109344026DCF8130D9F480911E
:102B20004402882309F481CF80915701873010F047
:102B30008830D9F48F5F809357018091B4010E944F
:102B4000D900E0915A02F0915B02309709F4F3CE7C
:102B5000148AF1CE853041F70E94310E8C010E941B
:102B6000340E0817190701F760CF80E0E4CF82E048
:102B7000848B8489148A823009F05ECF8091B701FA
:102B80000E94D9008091B4010E94D9001092B8012E
:102B900010925701D0CEE0915E02F0915F02309723
:102BA00029F08489148A813009F451CF10915001A1
:102BB00080915701813009F44DC0863009F46AC014
:102BC00060914F01812F6BC0953011F170F09630FC
:102BD00009F059CF2130B9F5865F8093500180917B
:102BE00050018A3090F58AE00EC0213079F48F5F71
:102BF0008093500180915001883108F444CF80E0E7
:102C0000213009F087E1809350013DCF8150F0CF12
:102C100080914F01213079F48F5F80934F01809133
:102C20004F018C3308F42FCF80E0213009F08BE383
:102C300080934F0128CF8150F0CF8F5F823018F3FF
:102C40001092500120CF8A50C8CF853B08F41BCF8B
:102C500084EBD9CF87E78093500288EB80935102B1
:102C6000109252028091510181110DC081E00E94A9
:102C70002C07811108C082E00E942C07811103C03B
:102C80001092530258CE8CE5111101C088E0809358
:102C9000530251CE812F6CE30E94C81C692F0E9401
:102CA0003B0749CE8091B801893019F08A3049F04C
:102CB00008958091B6010E94F400811111C00C9416
:102CC0000D108091B4010E94F400811109C080911F
:102CD0005701811103C081E0809357010C945F1468
:102CE00008951F920F920FB60F9211242F933F93C6
:102CF0008F939F93AF93BF938091BA019091BB0143
:102D0000A091BC01B091BD013091B90126E0230F23
:102D10002D3758F50296A11DB11D2093B90180935E
:102D2000BA019093BB01A093BC01B093BD01809107
:102D3000BE019091BF01A091C001B091C101019667
:102D4000A11DB11D8093BE019093BF01A093C0014E
:102D5000B093C101BF91AF919F918F913F912F91FE
:102D60000F900FBE0F901F90189529E8230F039620
:102D7000A11DB11DD2CF1F920F920FB60F92112439
:102D80002F933F934F935F936F937F938F939F9373
:102D9000AF93BF93EF93FF938091AC019091AD01FE
:102DA000A091AE01B091AF01892B8A2B8B2BD1F171
:102DB0009091AB01E091A901F091AA01808189274E
:102DC00080838091AC019091AD01A091AE01B09152
:102DD000AF01181619061A061B069CF48091AC0167
:102DE0009091AD01A091AE01B091AF010197A10901
:102DF000B1098093AC019093AD01A093AE01B09363
:102E0000AF01FF91EF91BF91AF919F918F917F9112
:102E10006F915F914F913F912F910F900FBE0F9047
:102E20001F90189580910101E8EAF0E0E4919FEF8E
:102E300090930101E13051F030F0E23069F060E050
:102E40000E94AD01DECF10926E00F9CF90916F001D
:102E50009D7F90936F00F3CF909170009D7F909332
:102E6000700091E09093B0009091B100987F9460D1
:102E70009093B1001092B300E2CF1F920F920FB661
:102E80000F9211242F933F934F935F936F937F93F0
:102E90008F939F93AF93BF93EF93FF938091B9006C
:102EA000887F803609F44AC0F0F5883209F4A7C05B
:102EB00018F5803109F49BC0B8F4882309F4F9C0EF
:102EC000883009F494C0FF91EF91BF91AF919F9129
:102ED0008F917F916F915F914F913F912F910F90C3
:102EE0000FBE0F901F901895883109F488C080326A
:102EF00051F78093080214C0803409F49DC040F457
:102F00008033B9F38833F9F68093080285ECB0C0BA
:102F1000803509F485C0883509F496C0883499F65F
:102F20000E94F612D0CF883909F48CC038F5883762
:102F300029F050F4883611F0803729F683E0809329
:102F40000A021092A80157C0883809F47BC0803962
:102F500019F0803809F0B7CF8091A801803208F0CD
:102F600071C0E091A80181E08E0F8093A80180914B
:102F7000BB00F0E0E857FE4F80833DC0803B39F056
:102F8000E0F4803A09F479C0883A09F09CCF84E0F3
:102F900080930A021092870110928601E091B2019B
:102FA000F091B30109958091860181110FC081E0F4
:102FB000809386011092660109C0803C09F4A6CF77
:102FC000883C09F4A3CF883B09F07DCFE0918701CD
:102FD00081E08E0F80938701F0E0EA59FE4F8081F7
:102FE0008093BB00909187018091860129C08091D8
:102FF000E5018093BB0085EC8093BC0064CF909189
:10300000070280910602981758F5E091070281E0C7
:103010008E0F80930702F0E0EA51FE4F8081E9CFE6
:10302000E091070281E08E0F809307028091BB0040
:10303000F0E0EA51FE4F80839091070280910602F2
:103040009817C8F285E8D8CFE091070281E08E0F8B
:10305000809307028091BB00F0E0EA51FE4F80832D
:103060008091090281115CCF81E08093E40184EAC0
:103070008093BC0010920A0226CF85EC8093BC009E
:1030800010920A028091A801803230F4E091A801E8
:10309000F0E0E857FE4F10826091A80170E0E091E7
:1030A000B001F091B10188E891E009951092A80172
:1030B0000ACF1092080234CFCF93DF9300D000D014
:1030C00000D0CDB7DEB7109237021092360288EEEC
:1030D00093E0A0E0B0E08093380290933902A0938F
:1030E0003A02B0933B028EE191E0909335028093D7
:1030F000340280E1809375028CE18093740286E053
:103100008093730220E081E697E9E3E9FEEF322F36
:10311000337041E050E011F050E040E061E0620FB8
:10312000DA01A359BE4F8A179B0738F09F01241B71
:10313000350B820F931F262FEACF2093700221E0D8
:10314000422F4150550BFA01ED5FFE4FE4913111D2
:1031500003C0223009F4EF5FF0E041E0420F8E1728
:103160009F0720F08E1B9F0B242FEACF2093710224
:103170008F5F809372021092640210926502109227
:103180006702109266028AE0EAE5F2E0DF011D9232
:103190008A95E9F785E080934B0286E080934C02A4
:1031A00084E690E090934F0280934E0260E085E0C9
:1031B0000E94DB0160E080914C020E94DB0160E034
:1031C00080914B020E94AD0160E080914C020E9410
:1031D000AD0181E080935402109255021092560284
:1031E0001092570210925802109259020E9419012F
:1031F00010924702109248021092490210924A021D
:1032000082E08093400261E00E94DB0183E08093D2
:10321000410261E00E94DB0182E390E0909343026F
:10322000809342020E94B810823028F060E082E36E
:1032300090E00E942E1381E00E94120E803A954089
:1032400070F080EE91E09E838D8380914202909198
:103250004302BE016B5F7F4F01960E943B1483E0E7
:103260000E94120E803A954070F08DEF93E09C839F
:103270008B838091420290914302BE016D5F7F4F2C
:1032800003960E943B1485E00E94120E853B910537
:10329000F8F08CE390E09A838983809142029091C8
:1032A0004302BE016F5F7F4F05960E943B148091E1
:1032B0004202909143020E94B810809344022696E5
:1032C0000FB6F894DEBF0FBECDBFDF91CF9108954A
:1032D00085E00E94120E0A97E0F2E9CFCF93DF93C8
:1032E000CDB7DEB72A970FB6F894DEBF0FBECDBFBD
:1032F000789484B5826084BD84B5816084BD85B5D1
:10330000826085BD85B5816085BD80916E008160DC
:1033100080936E0010928100809181008260809382
:103320008100809181008160809381008091800084
:103330008160809380008091B10084608093B100AF
:103340008091B00081608093B00080917A008460A9
:1033500080937A0080917A00826080937A008091D5
:103360007A008E7F80937A0080917A0080688093C3
:103370007A001092C10087E08093650285E190E0B9
:103380000E948E1D8C0140E06AE00E94EF061093BF
:103390005B0200935A0285E190E00E948E1D8C0131
:1033A00041E068E00E94EF0610935D0200935C022A
:1033B00085E190E00E948E1D8C0141E069E00E9451
:1033C000EF0610935F0200935E0285E190E00E9499
:1033D0008E1D8C0141E06FEF0E94EF061093610299
:1033E0000093600285E190E00E948E1D8C0141E017
:1033F0006FEF0E94EF06109363020093620280E673
:1034000090E00E94B810883028F061E080E690E0FB
:103410000E942E138FE590E00E94B81081508930F1
:1034200028F063E08FE590E00E942E132AE081E00F
:1034300090E0880F991F2150E1F76AE070E00E9448
:10344000E21C709303016093020183E690E00E9406
:10345000B8109FEF980F973008F087E0682F83E649
:1034600090E00E942E138FE590E00E94B8108150EA
:10347000893028F063E08FE590E00E942E1382E609
:1034800090E00E94B8109FEF980F973008F081E00D
:10349000682F82E690E00E942E131092C3011092D2
:1034A000C20110921102109233020E94A90382E617
:1034B00093E09093B3018093B20183E693E09093FD
:1034C000B1018093B0010E94D80481111FC00E94F5
:1034D000F6090E94D804882321F060E080E00E9471
:1034E000030A0E94D804882341F061E084E00E942E
:1034F000700561E085E00E9470050E94D804882371
:1035000079F060E086E00E9470050AC08FE00E94BA
:10351000180990E0880F892F881F990B892BB9F61D
:103520008EE00E9418098376682F60648EE00E9406
:1035300070050E94191181E08093540289E0809304
:103540004D0288E0809364028091650290E06BE018
:1035500070E008960E94721D909367028093660245
:10356000892B21F4109264021092650221E049E156
:1035700051E162E370E080E090E00E94E602809317
:10358000680221E046E956E062E370E080E090E006
:103590000E94E6028093690220E044E653E060E77F
:1035A00077E180E090E00E94E60280936A0220E0EA
:1035B00045EF51E162E370E080E090E00E94E602B6
:1035C00080936B0220E04AE45AE064E670E080E019
:1035D00090E00E94E60280936D0221E042E356E013
:1035E00062E370E080E090E00E94E60280936C026B
:1035F00021E04AEB50E164E670E080E090E00E9458
:10360000E60280936E0220E042E453E162E370E060
:1036100080E090E00E94E60280936F02CE01019666
:103620000E94C000CE0101960E94690E20E042E592
:1036300053E060E777E180E090E00E94E60280934B
:10364000B70120E04DE050E164E670E080E090E0FA
:103650000E94E6028093B60121E042E556E162E372
:1036600070E080E090E00E94E60221E04EE65FE03C
:1036700068EC70E080E090E00E94E60220E044EF19
:103680005AE062E370E080E090E00E94E6028093FE
:10369000B50120E04FE554E164E670E080E090E0A1
:1036A0000E94E6028093B40121E049ED5EE061E012
:1036B00070E080E090E00E94E6028BE0B82E90E09F
:1036C000292E90E0392E26E0A22E38E0932E0E947B
:1036D000DA0200914702109148022091490230918C
:1036E0004A02601771078207930709F417C10E9405
:1036F000DA026093470270934802809349029093E4
:103700004A0280E00E94F5079091B801853001F1EE
:10371000863071F181E00E94F50782E00E94F50792
:103720008091B8018330D8F5813008F48FC082E0F1
:103730000E942C07811103C081E00E941C0681E0D9
:103740000E942C07811131C082E00E941C062DC00E
:10375000913000F3933018F095509830D8F6E091FE
:103760005A02F0915B0281E03097A1F2848BD2CFB4
:10377000933050F4913078F0E0915A02F0915B026E
:10378000309741F282E0F2CF9530B1F318F29850C1
:10379000953090F3BFCF81E08093B801BBCF8330E9
:1037A00009F4A6C08550883010F283E00E94F50726
:1037B00084E00E94F50710E0809164029091650218
:1037C000890F9927991F181719060CF09FC01B9D88
:1037D00070011124E0916602F0916702EE0DFF1D69
:1037E0008081882389F181859285892B69F10E94E6
:1037F000DA02E0916602F0916702EE0DFF1DC180D2
:10380000D280E380F480CF82D886E986FA8645802C
:10381000568067807084AB01BC014C195D096E094C
:103820007F09441555056605770570F0D701C60177
:10383000840D951DA61DB71D81839283A383B48338
:103840000184F285E02D09951F5FB6CFE0915E02FD
:10385000F0915F02309769F08285863051F481E003
:103860000E942C07811105C09092B80182E00E944D
:10387000A10700915C0210915D02E0905E02F09061
:103880005F020115110551F0F8018285853019F4A8
:1038900093E09093B801E114F104C9F4E114F10448
:1038A00009F483CF0115110509F47FCFF701828553
:1038B000863009F07ACF60E0C8010E942207882391
:1038C00009F473CFC7010E949207C8010CC086306B
:1038D00029F760E0C7010E9422078823F9F2C80196
:1038E0000E949207C7010E949207A092B8015DCF83
:1038F000E0915C02F0915D02309709F456CF828529
:10390000853009F052CF0E9464034FCF8091B801F7
:10391000853058F48330E8F4813090F42114310478
:1039200009F4D5CE0E940000D2CE8930B8F780913C
:103930006F020E94F4008111F1CF0E944213EECF7A
:1039400080916B020E94F4008111E8CF0E94F51172
:10395000E5CF80916D020E94F4008111DFCF0E94BB
:103960004A0ADCCFF999FECF92BD81BDF89A99271A
:1039700080B50895262FF999FECF1FBA92BD81BD5B
:1039800020BD0FB6F894FA9AF99A0FBE01960895E1
:10399000991B79E004C0991F961708F0961B881FA1
:1039A0007A95C9F78095089587FB082E062687FD2E
:1039B000819567FD61950E94C81C0EF4919507FCE6
:1039C00081950895AA1BBB1B51E107C0AA1FBB1F0D
:1039D000A617B70710F0A61BB70B881F991F5A959B
:1039E000A9F780959095BC01CD01089597FB072E0E
:1039F00016F4009407D077FD09D00E94E21C07FC62
:103A000005D03EF4909581959F4F089570956195EE
:103A10007F4F0895A1E21A2EAA1BBB1BFD010DC00A
:103A2000AA1FBB1FEE1FFF1FA217B307E407F5076E
:103A300020F0A21BB30BE40BF50B661F771F881F4A
:103A4000991F1A9469F760957095809590959B01E0
:103A5000AC01BD01CF010895052E97FB1EF4009423
:103A60000E94431D57FD07D00E940A1D07FC03D08A
:103A70004EF40C94431D50954095309521953F4F41
:103A80004F4F5F4F089590958095709561957F4F4A
:103A90008F4F9F4F0895A29FB001B39FC001A39F76
:103AA000700D811D1124911DB29F700D811D112477
:103AB000911D08950E944B1DB7FF0895821B930B23
:103AC00008950E944B1DA59F900DB49F900DA49F3B
:103AD000800D911D11240895EE0FFF1F0590F491A4
:103AE000E02D09940F931F93CF93DF93869F80015E
:103AF000879F100D969F100D1124C8010E948E1DE6
:103B0000EC01009729F0A80170E060E00E94B31E6C
:103B1000CE01DF91CF911F910F9108950F931F93C5
:103B2000CF93DF938230910510F482E090E0E09132
:103B30007802F091790230E020E0B0E0A0E0309728
:103B400099F42115310509F44AC0281B390B24309A
:103B50003105D8F58A819B816115710589F1FB01D9
:103B600093838283FE0111C04081518102811381C0
:103B700048175907E0F04817590799F4109761F072
:103B800012960C93129713961C933296CF01DF91E5
:103B9000CF911F910F9108950093780210937902AD
:103BA000F4CF2115310551F04217530738F0A90120
:103BB000DB019A01BD01DF01F801C1CFEF01F9CFAF
:103BC0009093790280937802CDCFFE01E20FF31F2C
:103BD000819391932250310939832883D7CF209143
:103BE000760230917702232B41F420910601309127
:103BF00007013093770220937602209104013091DF
:103C000005012115310541F42DB73EB7409108015A
:103C100050910901241B350BE0917602F091770257
:103C2000E217F307A0F42E1B3F0B2817390778F093
:103C3000AC014E5F5F4F2417350748F04E0F5F1FF2
:103C40005093770240937602819391939FCFF0E057
:103C5000E0E09CCFCF93DF930097E9F0FC0132972F
:103C600013821282A0917802B0917902ED0130E0C6
:103C700020E01097A1F420813181820F931F2091C1
:103C80007602309177022817390709F061C0F09366
:103C90007702E0937602DF91CF910895EA01CE1783
:103CA000DF07E8F54A815B819E0141155105B1F7B7
:103CB000E901FB83EA8349915991C40FD51FEC17A1
:103CC000FD0761F4808191810296840F951FE901BF
:103CD00099838883828193819B838A83F0E0E0E0EB
:103CE00012968D919C9113970097B9F52D913C9167
:103CF0001197CD010296820F931F20917602309189
:103D000077022817390739F6309751F51092790262
:103D100010927802B0937702A0937602BCCFD3833F
:103D2000C28340815181840F951FC817D90761F460
:103D30004E5F5F4F88819981480F591F518340839F
:103D40008A819B81938382832115310509F0B0CF4D
:103D5000F0937902E09378029ECFFD01DC01C0CFA1
:103D600013821282D7CFDC0101C06D9341505040C5
:103D7000E0F70895F894FFCF0AFF660000007A028A
:103D800080003F065B4F666D7D077F6F777C395EF5
:103D9000797100000000410514058A05EA040D054B
:043DA000FA04EB0432
:107800000C94343C0C94513C0C94513C0C94513CE1
:107810000C94513C0C94513C0C94513C0C94513CB4
:107820000C94513C0C94513C0C94513C0C94513CA4
:107830000C94513C0C94513C0C94513C0C94513C94
:107840000C94513C0C94513C0C94513C0C94513C84
:107850000C94513C0C94513C0C94513C0C94513C74
:107860000C94513C0C94513C11241FBECFEFD8E036
:10787000DEBFCDBF11E0A0E0B1E0EAE8FFE702C063
:1078800005900D92A230B107D9F712E0A2E0B1E065
:1078900001C01D92AD30B107E1F70E942D3D0C945F
:1078A000C33F0C94003C982F95959595959595958B
:1078B000905D8F708A307CF0282F295A8091C0000B
:1078C00085FFFCCF9093C6008091C00085FFFCCF60
:1078D0002093C6000895282F205DF0CF982F809127
:1078E000C00085FFFCCF9093C6000895EF92FF92F1
:1078F0000F931F93EE24FF2487018091C00087FD22
:1079000017C00894E11CF11C011D111D81E2E8164D
:1079100081EAF80687E0080780E0180770F3E09135
:107920000401F091050109958091C00087FFE9CF1E
:107930008091C6001F910F91FF90EF9008950E94D3
:10794000763C982F8091C00085FFFCCF9093C600B5
:1079500091362CF490330CF09053892F089597555D
:10796000892F08951F930E949F3C182F0E949F3CCF
:107970001295107F810F1F9108951F93182F882350
:1079800021F00E94763C1150E1F71F9108951F935A
:10799000182F0E94763C803249F0809103018F5F5E
:1079A000809303018530C1F01F9108958091C0003C
:1079B00085FFFCCF84E18093C6008091C00085FFE5
:1079C000FCCF1093C6008091C00085FFFCCF80E102
:1079D0008093C6001F910895E0910401F091050184
:1079E00009951F9108950E94763C803241F0809164
:1079F00003018F5F80930301853081F008958091AA
:107A0000C00085FFFCCF84E18093C6008091C00058
:107A100085FFFCCF80E18093C6000895E0910401CA
:107A2000F09105010995089548EC50E08823A1F0F4
:107A30002D9A28EE33E0FA013197F1F721503040CA
:107A4000D1F72D9828EE33E0FA013197F1F7215064
:107A50003040D1F7815061F708953F924F925F9285
:107A60006F927F928F929F92AF92BF92CF92DF924E
:107A7000EF92FF920F931F93CF93DF93000082E06A
:107A80008093C00080E18093C4001092C50088E11B
:107A90008093C10086E08093C2005098589A259A3E
:107AA00081E00E94143D24E1F22E9EE1E92E85E959
:107AB000D82E0FE0C02E10E1B12EAA24A394B1E479
:107AC0009B2EA6E58A2EF2E57F2EE0E26E2E79E46B
:107AD000572E63E5462E50E5352E0E94763C8033C6
:107AE000B1F18133B9F1803409F46FC0813409F404
:107AF00076C0823409F485C0853409F488C08035A5
:107B000031F1823521F1813511F1853509F485C0D6
:107B1000863509F48DC0843609F496C0843709F49B
:107B200003C1853709F472C1863709F466C08091B4
:107B300003018F5F80930301853079F6E0910401A2
:107B4000F091050109950E94763C803351F60E9420
:107B5000F33CC3CF0E94763C803249F78091C0004D
:107B600085FFFCCFF092C6008091C00085FFFCCF5E
:107B70009092C6008091C00085FFFCCF8092C60025
:107B80008091C00085FFFCCF7092C6008091C0003C
:107B900085FFFCCF6092C6008091C00085FFFCCFBE
:107BA0005092C6008091C00085FFFCCF4092C60075
:107BB0008091C00085FFFCCF3092C6008091C0004C
:107BC00085FFFCCFB092C60088CF0E94763C8638F5
:107BD00008F4BDCF0E94763C0E94F33C7ECF0E9409
:107BE000763C803809F49CC0813809F40BC1823896
:107BF00009F430C1883909F48FC080E00E94C73C85
:107C00006CCF84E10E94BD3C0E94F33C66CF85E0CE
:107C10000E94BD3C0E94F33C60CF0E94763C809362
:107C200006010E94763C809307010E94F33C55CFE9
:107C30000E94763C803309F411C183E00E94BD3C70
:107C400080E00E94C73C49CF0E94763C80930902A5
:107C50000E94763C8093080280910C028E7F809374
:107C60000C020E94763C853409F409C18091080217
:107C700090910902892B89F000E010E00E94763C87
:107C8000F801E85FFE4F80830F5F1F4F809108026D
:107C9000909109020817190788F30E94763C8032F8
:107CA00009F045CF80910C0280FFF5C0609106017C
:107CB00070910701660F771F7093070160930601AB
:107CC000A0910802B09109021097C9F0E8E0F1E034
:107CD0009B01AD014E0F5F1FF999FECF32BD21BD53
:107CE000819180BDFA9AF99A2F5F3F4FE417F5070B
:107CF00099F76A0F7B1F70930701609306018091CB
:107D0000C00085FFFCCFF092C6008091C00085FFC7
:107D1000FCCFB092C600E1CE83E00E94C73CDDCE2E
:107D200082E00E94C73CD9CE0E94763C8093090233
:107D30000E94763C80930802809106019091070191
:107D4000880F991F90930701809306010E94763C4B
:107D5000853409F49AC080910C028E7F80930C02C6
:107D60000E94763C803209F0B8CE8091C00085FF39
:107D7000FCCFF092C600A0910802B09109021097C2
:107D8000C1F180910C02082F0170182F1695117007
:107D9000E0910601F0910701AF014F5F5F4FBA011B
:107DA00020E030E00023B1F4112339F49491809164
:107DB000C00085FFFCCF9093C6002F5F3F4FCB01E3
:107DC0000196FA012A173B0780F4BC014F5F5F4F11
:107DD000002351F3F999FECFF2BDE1BDF89A90B5B9
:107DE0008091C00085FFFCCFE6CF709307016093C0
:107DF00006018091C00085FDE5CE8091C00085FF21
:107E0000F8CFE0CE81E00E94C73C67CE0E94763C6E
:107E1000803209F08CCE8091C00085FFFCCFF092BB
:107E2000C6008091C00085FFFCCFE092C600809123
:107E3000C00085FFFCCFD092C6008091C00085FFB6
:107E4000FCCFC092C6008091C00085FFFCCFB092ED
:107E5000C60043CE80E10E94C73C3FCE0E94763CE4
:107E60000E94763C182F0E94763C112309F483C0AF
:107E7000113009F484C08FE00E94C73C2ECE80915F
:107E80000C02816080930C02F1CE80910C02816023
:107E900080930C0265CF809107018823880F880B9F
:107EA0008A2180930B028091060190910701880F2F
:107EB000991F90930701809306018091080280FF2B
:107EC00009C08091080290910902019690930902DD
:107ED00080930802F894F999FECF1127E0910601EA
:107EE000F0910701C8E0D1E0809108029091090269
:107EF000103091F40091570001700130D9F303E084
:107F000000935700E8950091570001700130D9F3B4
:107F100001E100935700E8950990199000915700EE
:107F200001700130D9F301E000935700E8951395F3
:107F3000103498F011270091570001700130D9F3E7
:107F400005E000935700E89500915700017001305B
:107F5000D9F301E100935700E8953296029709F0B2
:107F6000C7CF103011F00296E5CF11248091C000E8
:107F700085FFC5CEC8CE8EE10E94C73CAECD85E957
:0C7F80000E94C73CAACDF894FFCF8000FF
:00000001FF
